
ownwall_firmware.elf:     file format elf32-avr

Sections:
Idx Name          Size      VMA       LMA       File off  Algn
  0 .data         00000000  00800100  00000cca  00000d5e  2**0
                  CONTENTS, ALLOC, LOAD, DATA
  1 .text         00000cca  00000000  00000000  00000094  2**1
                  CONTENTS, ALLOC, LOAD, READONLY, CODE
  2 .bss          0000004c  00800100  00800100  00000d5e  2**0
                  ALLOC
  3 .stab         00001ddc  00000000  00000000  00000d60  2**2
                  CONTENTS, READONLY, DEBUGGING
  4 .stabstr      00001276  00000000  00000000  00002b3c  2**0
                  CONTENTS, READONLY, DEBUGGING
  5 .comment      00000011  00000000  00000000  00003db2  2**0
                  CONTENTS, READONLY
  6 .note.gnu.avr.deviceinfo 00000040  00000000  00000000  00003dc4  2**2
                  CONTENTS, READONLY

Disassembly of section .text:

00000000 <__vectors>:
   0:	0c 94 4f 00 	jmp	0x9e	; 0x9e <__ctors_end>
   4:	0c 94 61 00 	jmp	0xc2	; 0xc2 <__bad_interrupt>
   8:	0c 94 61 00 	jmp	0xc2	; 0xc2 <__bad_interrupt>
   c:	0c 94 61 00 	jmp	0xc2	; 0xc2 <__bad_interrupt>
  10:	0c 94 61 00 	jmp	0xc2	; 0xc2 <__bad_interrupt>
  14:	0c 94 61 00 	jmp	0xc2	; 0xc2 <__bad_interrupt>
  18:	0c 94 61 00 	jmp	0xc2	; 0xc2 <__bad_interrupt>
  1c:	0c 94 61 00 	jmp	0xc2	; 0xc2 <__bad_interrupt>
  20:	0c 94 61 00 	jmp	0xc2	; 0xc2 <__bad_interrupt>
  24:	0c 94 61 00 	jmp	0xc2	; 0xc2 <__bad_interrupt>
  28:	0c 94 61 00 	jmp	0xc2	; 0xc2 <__bad_interrupt>
  2c:	0c 94 61 00 	jmp	0xc2	; 0xc2 <__bad_interrupt>
  30:	0c 94 61 00 	jmp	0xc2	; 0xc2 <__bad_interrupt>
  34:	0c 94 61 00 	jmp	0xc2	; 0xc2 <__bad_interrupt>
  38:	0c 94 1c 06 	jmp	0xc38	; 0xc38 <__vector_14>
  3c:	0c 94 61 00 	jmp	0xc2	; 0xc2 <__bad_interrupt>
  40:	0c 94 61 00 	jmp	0xc2	; 0xc2 <__bad_interrupt>
  44:	0c 94 61 00 	jmp	0xc2	; 0xc2 <__bad_interrupt>
  48:	0c 94 97 05 	jmp	0xb2e	; 0xb2e <__vector_18>
  4c:	0c 94 61 00 	jmp	0xc2	; 0xc2 <__bad_interrupt>
  50:	0c 94 bb 05 	jmp	0xb76	; 0xb76 <__vector_20>
  54:	0c 94 61 00 	jmp	0xc2	; 0xc2 <__bad_interrupt>
  58:	0c 94 61 00 	jmp	0xc2	; 0xc2 <__bad_interrupt>
  5c:	0c 94 61 00 	jmp	0xc2	; 0xc2 <__bad_interrupt>
  60:	0c 94 61 00 	jmp	0xc2	; 0xc2 <__bad_interrupt>
  64:	0c 94 61 00 	jmp	0xc2	; 0xc2 <__bad_interrupt>
  68:	e7 01       	movw	r28, r14
  6a:	8e 01       	movw	r16, r28
  6c:	7f 02       	muls	r23, r31
  6e:	1f 02       	muls	r17, r31
  70:	4d 02       	muls	r20, r29
  72:	79 01       	movw	r14, r18
  74:	59 01       	movw	r10, r18
  76:	bf 01       	movw	r22, r30
  78:	66 04       	cpc	r6, r6
  7a:	4a 01       	movw	r8, r20
  7c:	78 03       	fmul	r23, r16
  7e:	36 04       	cpc	r3, r6
  80:	10 03       	mulsu	r17, r16
  82:	4e 04       	cpc	r4, r14
  84:	35 03       	mulsu	r19, r21
  86:	1e 04       	cpc	r1, r14
  88:	d4 02       	muls	r29, r20
  8a:	06 04       	cpc	r0, r6
  8c:	4a 01       	movw	r8, r20
  8e:	28 03       	fmul	r18, r16
  90:	4a 01       	movw	r8, r20
  92:	4a 01       	movw	r8, r20
  94:	4d 03       	fmul	r20, r21
  96:	4a 01       	movw	r8, r20
  98:	4a 01       	movw	r8, r20
  9a:	ec 02       	muls	r30, r28
  9c:	ad 02       	muls	r26, r29

0000009e <__ctors_end>:
  9e:	11 24       	eor	r1, r1
  a0:	1f be       	out	0x3f, r1	; 63
  a2:	cf ef       	ldi	r28, 0xFF	; 255
  a4:	d8 e0       	ldi	r29, 0x08	; 8
  a6:	de bf       	out	0x3e, r29	; 62
  a8:	cd bf       	out	0x3d, r28	; 61

000000aa <__do_clear_bss>:
  aa:	21 e0       	ldi	r18, 0x01	; 1
  ac:	a0 e0       	ldi	r26, 0x00	; 0
  ae:	b1 e0       	ldi	r27, 0x01	; 1
  b0:	01 c0       	rjmp	.+2      	; 0xb4 <.do_clear_bss_start>

000000b2 <.do_clear_bss_loop>:
  b2:	1d 92       	st	X+, r1

000000b4 <.do_clear_bss_start>:
  b4:	ac 34       	cpi	r26, 0x4C	; 76
  b6:	b2 07       	cpc	r27, r18
  b8:	e1 f7       	brne	.-8      	; 0xb2 <.do_clear_bss_loop>
  ba:	0e 94 63 00 	call	0xc6	; 0xc6 <main>
  be:	0c 94 63 06 	jmp	0xcc6	; 0xcc6 <_exit>

000000c2 <__bad_interrupt>:
  c2:	0c 94 00 00 	jmp	0	; 0x0 <__vectors>

000000c6 <main>:

/** global var for spi interrupts */
extern volatile uint8_t spi_buffer[3];

int main(void)
{
  c6:	cf 93       	push	r28
  c8:	df 93       	push	r29
  ca:	cd b7       	in	r28, 0x3d	; 61
  cc:	de b7       	in	r29, 0x3e	; 62
  ce:	63 97       	sbiw	r28, 0x13	; 19
  d0:	0f b6       	in	r0, 0x3f	; 63
  d2:	f8 94       	cli
  d4:	de bf       	out	0x3e, r29	; 62
  d6:	0f be       	out	0x3f, r0	; 63
  d8:	cd bf       	out	0x3d, r28	; 61
	uint8_t rs232_fwd_ct = 0;
	uint8_t rs232_tx_fill_idx = 0;
	uint8_t rs232_tx_trig = 0;
	
	/** daq vars */
	uint16_t daq_accu[6] = {0};
  da:	ae 01       	movw	r20, r28
  dc:	4f 5f       	subi	r20, 0xFF	; 255
  de:	5f 4f       	sbci	r21, 0xFF	; 255
  e0:	2a 01       	movw	r4, r20
  e2:	8c e0       	ldi	r24, 0x0C	; 12
  e4:	fa 01       	movw	r30, r20
  e6:	11 92       	st	Z+, r1
  e8:	8a 95       	dec	r24
  ea:	e9 f7       	brne	.-6      	; 0xe6 <main+0x20>
	uint8_t		mesure_cha; 	// channel of ADC to track on (2=VmL)
	uint16_t	setting;		// value tracked for mesure_cha (12*53,57)
	uint8_t		tracking_on;	// toggle tracking on or off

	/** initialisation */
	rs232_init(B57600, D8, PN, STP1);
  ec:	20 e0       	ldi	r18, 0x00	; 0
  ee:	40 e0       	ldi	r20, 0x00	; 0
  f0:	63 e0       	ldi	r22, 0x03	; 3
  f2:	80 e1       	ldi	r24, 0x10	; 16
  f4:	0e 94 32 05 	call	0xa64	; 0xa64 <rs232_init>
	pwm_init();
  f8:	0e 94 f6 05 	call	0xbec	; 0xbec <pwm_init>
	spi_init();
  fc:	0e 94 e6 05 	call	0xbcc	; 0xbcc <spi_init>
	sei();	
 100:	78 94       	sei

	/** reading setup from eeprom */
	board_id = eeprom_read_byte((uint8_t*)0);
 102:	80 e0       	ldi	r24, 0x00	; 0
 104:	90 e0       	ldi	r25, 0x00	; 0
 106:	0e 94 4d 06 	call	0xc9a	; 0xc9a <eeprom_read_byte>
 10a:	18 2f       	mov	r17, r24
	duty_cycle = eeprom_read_byte((uint8_t*)1)*256 + eeprom_read_byte((uint8_t*)2);
 10c:	81 e0       	ldi	r24, 0x01	; 1
 10e:	90 e0       	ldi	r25, 0x00	; 0
 110:	0e 94 4d 06 	call	0xc9a	; 0xc9a <eeprom_read_byte>
 114:	e8 2e       	mov	r14, r24
 116:	82 e0       	ldi	r24, 0x02	; 2
 118:	90 e0       	ldi	r25, 0x00	; 0
 11a:	0e 94 4d 06 	call	0xc9a	; 0xc9a <eeprom_read_byte>
 11e:	f1 2c       	mov	r15, r1
 120:	fe 2c       	mov	r15, r14
 122:	ee 24       	eor	r14, r14
 124:	e8 0e       	add	r14, r24
 126:	f1 1c       	adc	r15, r1
	mesure_cha = eeprom_read_byte((uint8_t*)3);
 128:	83 e0       	ldi	r24, 0x03	; 3
 12a:	90 e0       	ldi	r25, 0x00	; 0
 12c:	0e 94 4d 06 	call	0xc9a	; 0xc9a <eeprom_read_byte>
 130:	68 2e       	mov	r6, r24
	setting = eeprom_read_byte((uint8_t*)4)*256 + eeprom_read_byte((uint8_t*)5);
 132:	84 e0       	ldi	r24, 0x04	; 4
 134:	90 e0       	ldi	r25, 0x00	; 0
 136:	0e 94 4d 06 	call	0xc9a	; 0xc9a <eeprom_read_byte>
 13a:	08 2f       	mov	r16, r24
 13c:	85 e0       	ldi	r24, 0x05	; 5
 13e:	90 e0       	ldi	r25, 0x00	; 0
 140:	0e 94 4d 06 	call	0xc9a	; 0xc9a <eeprom_read_byte>
 144:	20 2f       	mov	r18, r16
 146:	30 e0       	ldi	r19, 0x00	; 0
 148:	32 2f       	mov	r19, r18
 14a:	22 27       	eor	r18, r18
 14c:	a9 01       	movw	r20, r18
 14e:	48 0f       	add	r20, r24
 150:	51 1d       	adc	r21, r1
 152:	5e 87       	std	Y+14, r21	; 0x0e
 154:	4d 87       	std	Y+13, r20	; 0x0d
	tracking_on = eeprom_read_byte((uint8_t*)6);
 156:	86 e0       	ldi	r24, 0x06	; 6
 158:	90 e0       	ldi	r25, 0x00	; 0
 15a:	0e 94 4d 06 	call	0xc9a	; 0xc9a <eeprom_read_byte>
 15e:	38 2e       	mov	r3, r24
	pwm_run = eeprom_read_byte((uint8_t*)7);
 160:	87 e0       	ldi	r24, 0x07	; 7
 162:	90 e0       	ldi	r25, 0x00	; 0
 164:	0e 94 4d 06 	call	0xc9a	; 0xc9a <eeprom_read_byte>
 168:	80 93 06 01 	sts	0x0106, r24
	
	/** sending setup to software */
	rs232_tx_buffer[0] = board_id;
 16c:	10 93 10 01 	sts	0x0110, r17
	rs232_tx_buffer[1] = (uint8_t)(duty_cycle>>8);
 170:	f0 92 11 01 	sts	0x0111, r15
	rs232_tx_buffer[2] = (uint8_t)duty_cycle;
 174:	e0 92 12 01 	sts	0x0112, r14
	rs232_tx_buffer[3] = mesure_cha;
 178:	60 92 13 01 	sts	0x0113, r6
	rs232_tx_buffer[4] = (uint8_t)(setting>>8);
 17c:	5e 85       	ldd	r21, Y+14	; 0x0e
 17e:	50 93 14 01 	sts	0x0114, r21
	rs232_tx_buffer[5] = (uint8_t)setting;
 182:	8d 85       	ldd	r24, Y+13	; 0x0d
 184:	80 93 15 01 	sts	0x0115, r24
	rs232_tx_buffer[6] = tracking_on;
 188:	30 92 16 01 	sts	0x0116, r3
	rs232_tx_buffer[7] = pwm_run;
 18c:	80 91 06 01 	lds	r24, 0x0106
 190:	80 93 17 01 	sts	0x0117, r24
	// copy calibration values
	for(uint16_t i=8; i<22; i++)
		rs232_tx_buffer[i] = eeprom_read_byte((uint8_t*)i);
 194:	88 e0       	ldi	r24, 0x08	; 8
 196:	90 e0       	ldi	r25, 0x00	; 0
 198:	0e 94 4d 06 	call	0xc9a	; 0xc9a <eeprom_read_byte>
 19c:	80 93 18 01 	sts	0x0118, r24
 1a0:	89 e0       	ldi	r24, 0x09	; 9
 1a2:	90 e0       	ldi	r25, 0x00	; 0
 1a4:	0e 94 4d 06 	call	0xc9a	; 0xc9a <eeprom_read_byte>
 1a8:	80 93 19 01 	sts	0x0119, r24
 1ac:	8a e0       	ldi	r24, 0x0A	; 10
 1ae:	90 e0       	ldi	r25, 0x00	; 0
 1b0:	0e 94 4d 06 	call	0xc9a	; 0xc9a <eeprom_read_byte>
 1b4:	80 93 1a 01 	sts	0x011A, r24
 1b8:	8b e0       	ldi	r24, 0x0B	; 11
 1ba:	90 e0       	ldi	r25, 0x00	; 0
 1bc:	0e 94 4d 06 	call	0xc9a	; 0xc9a <eeprom_read_byte>
 1c0:	80 93 1b 01 	sts	0x011B, r24
 1c4:	8c e0       	ldi	r24, 0x0C	; 12
 1c6:	90 e0       	ldi	r25, 0x00	; 0
 1c8:	0e 94 4d 06 	call	0xc9a	; 0xc9a <eeprom_read_byte>
 1cc:	80 93 1c 01 	sts	0x011C, r24
 1d0:	8d e0       	ldi	r24, 0x0D	; 13
 1d2:	90 e0       	ldi	r25, 0x00	; 0
 1d4:	0e 94 4d 06 	call	0xc9a	; 0xc9a <eeprom_read_byte>
 1d8:	80 93 1d 01 	sts	0x011D, r24
 1dc:	8e e0       	ldi	r24, 0x0E	; 14
 1de:	90 e0       	ldi	r25, 0x00	; 0
 1e0:	0e 94 4d 06 	call	0xc9a	; 0xc9a <eeprom_read_byte>
 1e4:	80 93 1e 01 	sts	0x011E, r24
 1e8:	8f e0       	ldi	r24, 0x0F	; 15
 1ea:	90 e0       	ldi	r25, 0x00	; 0
 1ec:	0e 94 4d 06 	call	0xc9a	; 0xc9a <eeprom_read_byte>
 1f0:	80 93 1f 01 	sts	0x011F, r24
 1f4:	80 e1       	ldi	r24, 0x10	; 16
 1f6:	90 e0       	ldi	r25, 0x00	; 0
 1f8:	0e 94 4d 06 	call	0xc9a	; 0xc9a <eeprom_read_byte>
 1fc:	80 93 20 01 	sts	0x0120, r24
 200:	81 e1       	ldi	r24, 0x11	; 17
 202:	90 e0       	ldi	r25, 0x00	; 0
 204:	0e 94 4d 06 	call	0xc9a	; 0xc9a <eeprom_read_byte>
 208:	80 93 21 01 	sts	0x0121, r24
 20c:	82 e1       	ldi	r24, 0x12	; 18
 20e:	90 e0       	ldi	r25, 0x00	; 0
 210:	0e 94 4d 06 	call	0xc9a	; 0xc9a <eeprom_read_byte>
 214:	80 93 22 01 	sts	0x0122, r24
 218:	83 e1       	ldi	r24, 0x13	; 19
 21a:	90 e0       	ldi	r25, 0x00	; 0
 21c:	0e 94 4d 06 	call	0xc9a	; 0xc9a <eeprom_read_byte>
 220:	80 93 23 01 	sts	0x0123, r24
 224:	84 e1       	ldi	r24, 0x14	; 20
 226:	90 e0       	ldi	r25, 0x00	; 0
 228:	0e 94 4d 06 	call	0xc9a	; 0xc9a <eeprom_read_byte>
 22c:	80 93 24 01 	sts	0x0124, r24
 230:	85 e1       	ldi	r24, 0x15	; 21
 232:	90 e0       	ldi	r25, 0x00	; 0
 234:	0e 94 4d 06 	call	0xc9a	; 0xc9a <eeprom_read_byte>
 238:	80 93 25 01 	sts	0x0125, r24
	rs232_tx_len = 22;
 23c:	86 e1       	ldi	r24, 0x16	; 22
 23e:	80 93 07 01 	sts	0x0107, r24
	RS232_TX; // launch transmission
 242:	81 e0       	ldi	r24, 0x01	; 1
 244:	80 93 49 01 	sts	0x0149, r24
 248:	10 92 01 01 	sts	0x0101, r1
 24c:	e0 91 01 01 	lds	r30, 0x0101
 250:	8e 0f       	add	r24, r30
 252:	80 93 01 01 	sts	0x0101, r24
 256:	f0 e0       	ldi	r31, 0x00	; 0
 258:	e0 5f       	subi	r30, 0xF0	; 240
 25a:	fe 4f       	sbci	r31, 0xFE	; 254
 25c:	80 81       	ld	r24, Z
 25e:	80 93 c6 00 	sts	0x00C6, r24
	while(rs232_tx_flag); // wait for transmission end
 262:	80 91 49 01 	lds	r24, 0x0149
 266:	81 11       	cpse	r24, r1
 268:	fc cf       	rjmp	.-8      	; 0x262 <main+0x19c>
	UCSR0B &= ~(1 << TXCIE0); // disable TX interrupt
 26a:	80 91 c1 00 	lds	r24, 0x00C1
 26e:	8f 7b       	andi	r24, 0xBF	; 191
 270:	80 93 c1 00 	sts	0x00C1, r24

	DDRC = 0xff; // for debugging
 274:	8f ef       	ldi	r24, 0xFF	; 255
 276:	87 b9       	out	0x07, r24	; 7
	
	/** realtime loop var */
	uint8_t height_step = 0;
	
	/** voltage tracking vars*/
	uint16_t mesure = 0xfff;
 278:	0f ef       	ldi	r16, 0xFF	; 255
 27a:	1f e0       	ldi	r17, 0x0F	; 15
	
	/** daq vars */
	uint16_t daq_accu[6] = {0};
	uint8_t	daq_accu_idx = 0, daq_prev_idx = 0;
	uint8_t daq_avg_ct = 0, daq_avg_idx = 0;
	uint8_t daq_avg_hight = 0, daq_avg_low = 0;
 27c:	19 8a       	std	Y+17, r1	; 0x11
 27e:	18 8a       	std	Y+16, r1	; 0x10
	uint8_t rs232_tx_trig = 0;
	
	/** daq vars */
	uint16_t daq_accu[6] = {0};
	uint8_t	daq_accu_idx = 0, daq_prev_idx = 0;
	uint8_t daq_avg_ct = 0, daq_avg_idx = 0;
 280:	1f 86       	std	Y+15, r1	; 0x0f
 282:	70 e0       	ldi	r23, 0x00	; 0
	uint8_t rs232_tx_fill_idx = 0;
	uint8_t rs232_tx_trig = 0;
	
	/** daq vars */
	uint16_t daq_accu[6] = {0};
	uint8_t	daq_accu_idx = 0, daq_prev_idx = 0;
 284:	40 e0       	ldi	r20, 0x00	; 0
 286:	71 2c       	mov	r7, r1
int main(void)
{
	/** rs232 vars */
	uint8_t rs232_fwd_ct = 0;
	uint8_t rs232_tx_fill_idx = 0;
	uint8_t rs232_tx_trig = 0;
 288:	d1 2c       	mov	r13, r1

int main(void)
{
	/** rs232 vars */
	uint8_t rs232_fwd_ct = 0;
	uint8_t rs232_tx_fill_idx = 0;
 28a:	21 2c       	mov	r2, r1
extern volatile uint8_t spi_buffer[3];

int main(void)
{
	/** rs232 vars */
	uint8_t rs232_fwd_ct = 0;
 28c:	c1 2c       	mov	r12, r1
 28e:	81 2c       	mov	r8, r1
 290:	91 2c       	mov	r9, r1
 292:	54 01       	movw	r10, r8
	DDRC = 0xff; // for debugging
		
	while(1)
	{
		/** Mesures */
		if(timer_10us) // every 10us (step time)
 294:	80 91 46 01 	lds	r24, 0x0146
 298:	88 23       	and	r24, r24
 29a:	b9 f0       	breq	.+46     	; 0x2ca <main+0x204>
		{
			//PORTC |= 1;
			
			timer_10us = 0; // reset the flag
 29c:	10 92 46 01 	sts	0x0146, r1
			
			switch(height_step)
 2a0:	98 e0       	ldi	r25, 0x08	; 8
 2a2:	89 16       	cp	r8, r25
 2a4:	91 04       	cpc	r9, r1
 2a6:	88 f4       	brcc	.+34     	; 0x2ca <main+0x204>
 2a8:	f4 01       	movw	r30, r8
 2aa:	ec 5c       	subi	r30, 0xCC	; 204
 2ac:	ff 4f       	sbci	r31, 0xFF	; 255
 2ae:	0c 94 47 06 	jmp	0xc8e	; 0xc8e <__tablejump2__>
			case 6:
				//PORTC |= 1;

				/** DAQ step 7 */
				//** transfert raw mesure data into TX buffer */
				if(daq_avg_ct == 8)
 2b2:	78 30       	cpi	r23, 0x08	; 8
 2b4:	09 f4       	brne	.+2      	; 0x2b8 <main+0x1f2>
 2b6:	6f c3       	rjmp	.+1758   	; 0x996 <__stack+0x97>
				
				//PORTC &= ~1;
				//PORTC |= 1;
				
				/** Feedback step 3 */
				SPI_3;
 2b8:	8e b5       	in	r24, 0x2e	; 46
 2ba:	80 93 44 01 	sts	0x0144, r24
 2be:	1e bc       	out	0x2e, r1	; 46
 2c0:	b7 e0       	ldi	r27, 0x07	; 7
 2c2:	8b 2e       	mov	r8, r27
 2c4:	91 2c       	mov	r9, r1
 2c6:	a1 2c       	mov	r10, r1
 2c8:	b1 2c       	mov	r11, r1
				break;
			} // end of switch(height_step)
		} // end if(timer_10us)		
		
		/** receive settings from rs232 */
		if(rs232_rx_flag)
 2ca:	80 91 00 01 	lds	r24, 0x0100
 2ce:	88 23       	and	r24, r24
 2d0:	09 f3       	breq	.-62     	; 0x294 <main+0x1ce>
		{
			rs232_rx_flag = 0;	// reset rx flag
 2d2:	10 92 00 01 	sts	0x0100, r1

			switch(rs232_rx_buffer[0])
 2d6:	e0 91 02 01 	lds	r30, 0x0102
 2da:	8e 2f       	mov	r24, r30
 2dc:	90 e0       	ldi	r25, 0x00	; 0
 2de:	fc 01       	movw	r30, r24
 2e0:	e2 56       	subi	r30, 0x62	; 98
 2e2:	f1 09       	sbc	r31, r1
 2e4:	e3 31       	cpi	r30, 0x13	; 19
 2e6:	f1 05       	cpc	r31, r1
 2e8:	a8 f6       	brcc	.-86     	; 0x294 <main+0x1ce>
 2ea:	e4 5c       	subi	r30, 0xC4	; 196
 2ec:	ff 4f       	sbci	r31, 0xFF	; 255
 2ee:	0c 94 47 06 	jmp	0xc8e	; 0xc8e <__tablejump2__>
				
			case 5:
				//PORTC |= 1;
				
				/** Feedback step 9 */
				PWM_SET4;
 2f2:	80 91 47 01 	lds	r24, 0x0147
 2f6:	88 30       	cpi	r24, 0x08	; 8
 2f8:	08 f4       	brcc	.+2      	; 0x2fc <main+0x236>
 2fa:	10 c3       	rjmp	.+1568   	; 0x91c <__stack+0x1d>
 2fc:	80 91 4a 01 	lds	r24, 0x014A
 300:	80 93 0f 01 	sts	0x010F, r24
				
				//PORTC &= ~1;
				//PORTC |= 1;
				
				/** Feedback step 2 */
				SPI_2;
 304:	80 91 45 01 	lds	r24, 0x0145
 308:	8e bd       	out	0x2e, r24	; 46
				//PORTC &= ~1;
				//PORTC |= 1;
				
				/** DAQ step 6 (every 3840µs) */
				//* Averaging 8 mesures per channel
				if(daq_avg_ct == 8)
 30a:	78 30       	cpi	r23, 0x08	; 8
 30c:	09 f4       	brne	.+2      	; 0x310 <main+0x24a>
 30e:	10 c3       	rjmp	.+1568   	; 0x930 <__stack+0x31>
 310:	e6 e0       	ldi	r30, 0x06	; 6
 312:	8e 2e       	mov	r8, r30
 314:	91 2c       	mov	r9, r1
 316:	a1 2c       	mov	r10, r1
 318:	b1 2c       	mov	r11, r1
 31a:	d7 cf       	rjmp	.-82     	; 0x2ca <main+0x204>
			case 1:
				//PORTC |= 1;
				
				/** Feedback step 6 */
				//** duty cycle correction step 2 */
				if(tracking_on)
 31c:	33 20       	and	r3, r3
 31e:	09 f4       	brne	.+2      	; 0x322 <main+0x25c>
 320:	e7 c2       	rjmp	.+1486   	; 0x8f0 <main+0x82a>
				{
					if(mesure > setting && duty_cycle > 0) duty_cycle--;
 322:	ed 85       	ldd	r30, Y+13	; 0x0d
 324:	fe 85       	ldd	r31, Y+14	; 0x0e
 326:	e0 17       	cp	r30, r16
 328:	f1 07       	cpc	r31, r17
 32a:	30 f4       	brcc	.+12     	; 0x338 <main+0x272>
 32c:	e1 14       	cp	r14, r1
 32e:	f1 04       	cpc	r15, r1
 330:	19 f0       	breq	.+6      	; 0x338 <main+0x272>
 332:	f1 e0       	ldi	r31, 0x01	; 1
 334:	ef 1a       	sub	r14, r31
 336:	f1 08       	sbc	r15, r1
					if(mesure==0) duty_cycle = 0;
 338:	01 15       	cp	r16, r1
 33a:	11 05       	cpc	r17, r1
 33c:	09 f0       	breq	.+2      	; 0x340 <main+0x27a>
 33e:	d8 c2       	rjmp	.+1456   	; 0x8f0 <main+0x82a>
 340:	90 e0       	ldi	r25, 0x00	; 0
 342:	80 e0       	ldi	r24, 0x00	; 0
 344:	e1 2c       	mov	r14, r1
 346:	f1 2c       	mov	r15, r1
					//last_mesure = mesure;
				}
				//** setting new pwm duty cycle step 1 */
				PWM_SET1;
 348:	80 93 48 01 	sts	0x0148, r24
 34c:	80 91 48 01 	lds	r24, 0x0148
 350:	8f 5f       	subi	r24, 0xFF	; 255
 352:	80 93 4a 01 	sts	0x014A, r24
 356:	90 93 47 01 	sts	0x0147, r25
 35a:	80 91 48 01 	lds	r24, 0x0148
 35e:	88 30       	cpi	r24, 0x08	; 8
 360:	28 f4       	brcc	.+10     	; 0x36c <main+0x2a6>
 362:	28 e0       	ldi	r18, 0x08	; 8
 364:	20 93 48 01 	sts	0x0148, r18
 368:	10 92 47 01 	sts	0x0147, r1
				
				//PORTC &= ~1;
				//PORTC |= 1;
				
				/** DAQ step 2 */
				SPI_2; // writing the second SPI command byte
 36c:	80 91 45 01 	lds	r24, 0x0145
 370:	8e bd       	out	0x2e, r24	; 46
 372:	92 e0       	ldi	r25, 0x02	; 2
 374:	89 2e       	mov	r8, r25
 376:	91 2c       	mov	r9, r1
 378:	a1 2c       	mov	r10, r1
 37a:	b1 2c       	mov	r11, r1
				
				//PORTC &= ~1;
				//* 2,7µs from case 1
								
				height_step = 2;
				break;
 37c:	a6 cf       	rjmp	.-180    	; 0x2ca <main+0x204>
			case 7:
				//PORTC |= 1;
				
				/** DAQ step 8 */
				//** forward serial transfert **/
				if(rs232_tx_flag && ++rs232_fwd_ct==3)
 37e:	80 91 49 01 	lds	r24, 0x0149
 382:	88 23       	and	r24, r24
 384:	29 f0       	breq	.+10     	; 0x390 <main+0x2ca>
 386:	c3 94       	inc	r12
 388:	83 e0       	ldi	r24, 0x03	; 3
 38a:	c8 16       	cp	r12, r24
 38c:	09 f4       	brne	.+2      	; 0x390 <main+0x2ca>
 38e:	1f c3       	rjmp	.+1598   	; 0x9ce <__stack+0xcf>
				{
					rs232_fwd_ct=0;
					RS232_FWD;
				}
				//** or launch new serial transfert **/
				if(rs232_tx_trig)
 390:	dd 20       	and	r13, r13
 392:	a1 f0       	breq	.+40     	; 0x3bc <main+0x2f6>
				{
						rs232_tx_trig = 0;
						rs232_tx_len = 16;
 394:	90 e1       	ldi	r25, 0x10	; 16
 396:	90 93 07 01 	sts	0x0107, r25
						RS232_TX;
 39a:	e1 e0       	ldi	r30, 0x01	; 1
 39c:	e0 93 49 01 	sts	0x0149, r30
 3a0:	10 92 01 01 	sts	0x0101, r1
 3a4:	e0 91 01 01 	lds	r30, 0x0101
 3a8:	81 e0       	ldi	r24, 0x01	; 1
 3aa:	8e 0f       	add	r24, r30
 3ac:	80 93 01 01 	sts	0x0101, r24
 3b0:	f0 e0       	ldi	r31, 0x00	; 0
 3b2:	e0 5f       	subi	r30, 0xF0	; 240
 3b4:	fe 4f       	sbci	r31, 0xFE	; 254
 3b6:	80 81       	ld	r24, Z
 3b8:	80 93 c6 00 	sts	0x00C6, r24
				
				//PORTC &= ~1;
				//PORTC |= 1;
				
				/** Feedback step 4 */
				SPI_END;
 3bc:	8e b5       	in	r24, 0x2e	; 46
 3be:	80 93 45 01 	sts	0x0145, r24
 3c2:	2a 9a       	sbi	0x05, 2	; 5
				
				//PORTC &= ~1;
				//* 1µs to 3,1µs from case 7
				
				height_step = 0;
				break;
 3c4:	d1 2c       	mov	r13, r1
 3c6:	81 2c       	mov	r8, r1
 3c8:	91 2c       	mov	r9, r1
 3ca:	54 01       	movw	r10, r8
 3cc:	7e cf       	rjmp	.-260    	; 0x2ca <main+0x204>
			{
			case 0:
				//PORTC |= 1;
				
				/** Feedback step 5 */
				mesure = DAQ_CATCH; // Catch a mesure for tracking
 3ce:	00 91 44 01 	lds	r16, 0x0144
 3d2:	80 91 45 01 	lds	r24, 0x0145
 3d6:	0f 70       	andi	r16, 0x0F	; 15
 3d8:	10 e0       	ldi	r17, 0x00	; 0
 3da:	10 2f       	mov	r17, r16
 3dc:	00 27       	eor	r16, r16
 3de:	08 0f       	add	r16, r24
 3e0:	11 1d       	adc	r17, r1
				//* duty cycle correction step 1 */
				if(tracking_on
 3e2:	33 20       	and	r3, r3
 3e4:	69 f0       	breq	.+26     	; 0x400 <main+0x33a>
				&& (mesure < setting)
 3e6:	4d 85       	ldd	r20, Y+13	; 0x0d
 3e8:	5e 85       	ldd	r21, Y+14	; 0x0e
 3ea:	04 17       	cp	r16, r20
 3ec:	15 07       	cpc	r17, r21
 3ee:	40 f4       	brcc	.+16     	; 0x400 <main+0x33a>
				&& (duty_cycle < 639)) duty_cycle++;
 3f0:	5f e7       	ldi	r21, 0x7F	; 127
 3f2:	e5 16       	cp	r14, r21
 3f4:	52 e0       	ldi	r21, 0x02	; 2
 3f6:	f5 06       	cpc	r15, r21
 3f8:	18 f4       	brcc	.+6      	; 0x400 <main+0x33a>
 3fa:	8f ef       	ldi	r24, 0xFF	; 255
 3fc:	e8 1a       	sub	r14, r24
 3fe:	f8 0a       	sbc	r15, r24
				
				//PORTC &= ~1;
				//PORTC |= 1;
				
				/** DAQ setp 1 */
				DAQ_LAUNCH(daq_accu_idx); // Launch mesure for DAQ				
 400:	70 92 43 01 	sts	0x0143, r7
 404:	87 2d       	mov	r24, r7
 406:	86 95       	lsr	r24
 408:	86 95       	lsr	r24
 40a:	86 60       	ori	r24, 0x06	; 6
 40c:	80 93 44 01 	sts	0x0144, r24
 410:	87 2d       	mov	r24, r7
 412:	82 95       	swap	r24
 414:	88 0f       	add	r24, r24
 416:	88 0f       	add	r24, r24
 418:	80 7c       	andi	r24, 0xC0	; 192
 41a:	80 93 45 01 	sts	0x0145, r24
 41e:	2a 98       	cbi	0x05, 2	; 5
 420:	80 91 44 01 	lds	r24, 0x0144
 424:	8e bd       	out	0x2e, r24	; 46
				//* loop over the six channels every 480µs */
				daq_prev_idx = daq_accu_idx;
				daq_accu_idx++;
 426:	81 e0       	ldi	r24, 0x01	; 1
 428:	87 0d       	add	r24, r7
				//PORTC |= 1;
				
				/** DAQ setp 1 */
				DAQ_LAUNCH(daq_accu_idx); // Launch mesure for DAQ				
				//* loop over the six channels every 480µs */
				daq_prev_idx = daq_accu_idx;
 42a:	47 2d       	mov	r20, r7
				daq_accu_idx++;
				if(daq_accu_idx == 6) daq_accu_idx = 0;
 42c:	86 30       	cpi	r24, 0x06	; 6
 42e:	09 f4       	brne	.+2      	; 0x432 <main+0x36c>
 430:	c8 c2       	rjmp	.+1424   	; 0x9c2 <__stack+0xc3>
 432:	78 2e       	mov	r7, r24
 434:	81 2c       	mov	r8, r1
 436:	91 2c       	mov	r9, r1
 438:	54 01       	movw	r10, r8
 43a:	83 94       	inc	r8
 43c:	46 cf       	rjmp	.-372    	; 0x2ca <main+0x204>
				
			case 3:
				//PORTC |= 1;
				
				/** Feedback step 8 */
				PWM_SET3;
 43e:	80 91 47 01 	lds	r24, 0x0147
 442:	84 30       	cpi	r24, 0x04	; 4
 444:	08 f4       	brcc	.+2      	; 0x448 <main+0x382>
 446:	67 c2       	rjmp	.+1230   	; 0x916 <__stack+0x17>
 448:	80 91 4a 01 	lds	r24, 0x014A
 44c:	80 93 0b 01 	sts	0x010B, r24
 450:	80 91 47 01 	lds	r24, 0x0147
 454:	85 30       	cpi	r24, 0x05	; 5
 456:	08 f4       	brcc	.+2      	; 0x45a <main+0x394>
 458:	5b c2       	rjmp	.+1206   	; 0x910 <__stack+0x11>
 45a:	80 91 4a 01 	lds	r24, 0x014A
 45e:	80 93 0c 01 	sts	0x010C, r24
 462:	80 91 47 01 	lds	r24, 0x0147
 466:	86 30       	cpi	r24, 0x06	; 6
 468:	08 f4       	brcc	.+2      	; 0x46c <main+0x3a6>
 46a:	4f c2       	rjmp	.+1182   	; 0x90a <__stack+0xb>
 46c:	80 91 4a 01 	lds	r24, 0x014A
 470:	80 93 0d 01 	sts	0x010D, r24
 474:	80 91 47 01 	lds	r24, 0x0147
 478:	87 30       	cpi	r24, 0x07	; 7
 47a:	08 f4       	brcc	.+2      	; 0x47e <main+0x3b8>
 47c:	43 c2       	rjmp	.+1158   	; 0x904 <__stack+0x5>
 47e:	80 91 4a 01 	lds	r24, 0x014A
 482:	80 93 0e 01 	sts	0x010E, r24
				
				//PORTC &= ~1;
				//PORTC |= 1;
				
				/** DAQ step 4 */
				SPI_END;
 486:	8e b5       	in	r24, 0x2e	; 46
 488:	80 93 45 01 	sts	0x0145, r24
 48c:	2a 9a       	sbi	0x05, 2	; 5
 48e:	b4 e0       	ldi	r27, 0x04	; 4
 490:	8b 2e       	mov	r8, r27
 492:	91 2c       	mov	r9, r1
 494:	a1 2c       	mov	r10, r1
 496:	b1 2c       	mov	r11, r1
				
				//PORTC &= ~1;
				//* 3,5µs from case 3
				
				height_step = 4;
				break;
 498:	18 cf       	rjmp	.-464    	; 0x2ca <main+0x204>
				
			case 4:
				//PORTC |= 1;
				
				/** DAQ step 5 */
				daq_accu[daq_prev_idx] += DAQ_CATCH;
 49a:	80 91 44 01 	lds	r24, 0x0144
 49e:	20 91 45 01 	lds	r18, 0x0145
 4a2:	e4 2f       	mov	r30, r20
 4a4:	f0 e0       	ldi	r31, 0x00	; 0
 4a6:	ee 0f       	add	r30, r30
 4a8:	ff 1f       	adc	r31, r31
 4aa:	e4 0d       	add	r30, r4
 4ac:	f5 1d       	adc	r31, r5
 4ae:	8f 70       	andi	r24, 0x0F	; 15
 4b0:	90 e0       	ldi	r25, 0x00	; 0
 4b2:	98 2f       	mov	r25, r24
 4b4:	88 27       	eor	r24, r24
 4b6:	82 0f       	add	r24, r18
 4b8:	91 1d       	adc	r25, r1
 4ba:	20 81       	ld	r18, Z
 4bc:	31 81       	ldd	r19, Z+1	; 0x01
 4be:	82 0f       	add	r24, r18
 4c0:	93 1f       	adc	r25, r19
 4c2:	91 83       	std	Z+1, r25	; 0x01
 4c4:	80 83       	st	Z, r24
				
				//PORTC &= ~1;
				//PORTC |= 1;
				
				/** Feedback step 1 */
				DAQ_LAUNCH(mesure_cha);
 4c6:	60 92 43 01 	sts	0x0143, r6
 4ca:	86 2d       	mov	r24, r6
 4cc:	86 95       	lsr	r24
 4ce:	86 95       	lsr	r24
 4d0:	86 60       	ori	r24, 0x06	; 6
 4d2:	80 93 44 01 	sts	0x0144, r24
 4d6:	86 2d       	mov	r24, r6
 4d8:	82 95       	swap	r24
 4da:	88 0f       	add	r24, r24
 4dc:	88 0f       	add	r24, r24
 4de:	80 7c       	andi	r24, 0xC0	; 192
 4e0:	80 93 45 01 	sts	0x0145, r24
 4e4:	2a 98       	cbi	0x05, 2	; 5
 4e6:	80 91 44 01 	lds	r24, 0x0144
 4ea:	8e bd       	out	0x2e, r24	; 46
				
				//PORTC &= ~1;
				//PORTC |= 1;
				
				/** DAQ step 5 bis (delayed for DAQ_LAUNCH regularity) */
				if(daq_prev_idx == 5) daq_avg_ct++;
 4ec:	45 30       	cpi	r20, 0x05	; 5
 4ee:	09 f4       	brne	.+2      	; 0x4f2 <main+0x42c>
 4f0:	4b c2       	rjmp	.+1174   	; 0x988 <__stack+0x89>
 4f2:	f5 e0       	ldi	r31, 0x05	; 5
 4f4:	8f 2e       	mov	r8, r31
 4f6:	91 2c       	mov	r9, r1
 4f8:	a1 2c       	mov	r10, r1
 4fa:	b1 2c       	mov	r11, r1
 4fc:	e6 ce       	rjmp	.-564    	; 0x2ca <main+0x204>
			case 2:
				//PORTC |= 1;
				
				/** Feedback step 7 */
				//** setting new pwm duty cycle step 2 */
				PWM_SET2;
 4fe:	80 91 48 01 	lds	r24, 0x0148
 502:	89 34       	cpi	r24, 0x49	; 73
 504:	28 f0       	brcs	.+10     	; 0x510 <main+0x44a>
 506:	58 e4       	ldi	r21, 0x48	; 72
 508:	50 93 48 01 	sts	0x0148, r21
 50c:	10 92 47 01 	sts	0x0147, r1
 510:	80 91 47 01 	lds	r24, 0x0147
 514:	88 23       	and	r24, r24
 516:	09 f4       	brne	.+2      	; 0x51a <main+0x454>
 518:	2b c2       	rjmp	.+1110   	; 0x970 <__stack+0x71>
 51a:	80 91 4a 01 	lds	r24, 0x014A
 51e:	80 93 08 01 	sts	0x0108, r24
 522:	80 91 47 01 	lds	r24, 0x0147
 526:	82 30       	cpi	r24, 0x02	; 2
 528:	08 f4       	brcc	.+2      	; 0x52c <main+0x466>
 52a:	2b c2       	rjmp	.+1110   	; 0x982 <__stack+0x83>
 52c:	80 91 4a 01 	lds	r24, 0x014A
 530:	80 93 09 01 	sts	0x0109, r24
 534:	80 91 47 01 	lds	r24, 0x0147
 538:	83 30       	cpi	r24, 0x03	; 3
 53a:	08 f4       	brcc	.+2      	; 0x53e <main+0x478>
 53c:	16 c2       	rjmp	.+1068   	; 0x96a <__stack+0x6b>
 53e:	80 91 4a 01 	lds	r24, 0x014A
 542:	80 93 0a 01 	sts	0x010A, r24
				
				//PORTC &= ~1;
				//PORTC |= 1;
				
				/** DAQ step 3 */
				SPI_3;
 546:	8e b5       	in	r24, 0x2e	; 46
 548:	80 93 44 01 	sts	0x0144, r24
 54c:	1e bc       	out	0x2e, r1	; 46
 54e:	83 e0       	ldi	r24, 0x03	; 3
 550:	88 2e       	mov	r8, r24
 552:	91 2c       	mov	r9, r1
 554:	a1 2c       	mov	r10, r1
 556:	b1 2c       	mov	r11, r1
				
				//PORTC &= ~1;
				//* 2,8µs from case 2
				
				height_step = 3;
				break;
 558:	b8 ce       	rjmp	.-656    	; 0x2ca <main+0x204>
						eeprom_write_byte((uint8_t*)5, rs232_rx_buffer[2]);
					}
					break;
				
				case 't': // set tracking_on
					if(rs232_rx_idx==2)
 55a:	80 91 42 01 	lds	r24, 0x0142
 55e:	82 30       	cpi	r24, 0x02	; 2
 560:	09 f0       	breq	.+2      	; 0x564 <main+0x49e>
 562:	98 ce       	rjmp	.-720    	; 0x294 <main+0x1ce>
					{
						rs232_rx_idx = 0;
 564:	10 92 42 01 	sts	0x0142, r1
						tracking_on = rs232_rx_buffer[1];
 568:	30 90 03 01 	lds	r3, 0x0103
						eeprom_write_byte((uint8_t*)6, tracking_on);
 56c:	63 2d       	mov	r22, r3
 56e:	86 e0       	ldi	r24, 0x06	; 6
 570:	90 e0       	ldi	r25, 0x00	; 0
 572:	4a 8b       	std	Y+18, r20	; 0x12
 574:	7b 8b       	std	Y+19, r23	; 0x13
 576:	0e 94 55 06 	call	0xcaa	; 0xcaa <eeprom_write_byte>
						// reset duty_cycle
						if(!tracking_on)
 57a:	4a 89       	ldd	r20, Y+18	; 0x12
 57c:	7b 89       	ldd	r23, Y+19	; 0x13
 57e:	31 10       	cpse	r3, r1
 580:	89 ce       	rjmp	.-750    	; 0x294 <main+0x1ce>
							duty_cycle =
								eeprom_read_byte((uint8_t*)1)*256
 582:	81 e0       	ldi	r24, 0x01	; 1
 584:	90 e0       	ldi	r25, 0x00	; 0
 586:	0e 94 4d 06 	call	0xc9a	; 0xc9a <eeprom_read_byte>
 58a:	f8 2e       	mov	r15, r24
								+ eeprom_read_byte((uint8_t*)2);
 58c:	82 e0       	ldi	r24, 0x02	; 2
 58e:	90 e0       	ldi	r25, 0x00	; 0
 590:	0e 94 4d 06 	call	0xc9a	; 0xc9a <eeprom_read_byte>
						tracking_on = rs232_rx_buffer[1];
						eeprom_write_byte((uint8_t*)6, tracking_on);
						// reset duty_cycle
						if(!tracking_on)
							duty_cycle =
								eeprom_read_byte((uint8_t*)1)*256
 594:	2f 2d       	mov	r18, r15
 596:	30 e0       	ldi	r19, 0x00	; 0
 598:	32 2f       	mov	r19, r18
 59a:	22 27       	eor	r18, r18
								+ eeprom_read_byte((uint8_t*)2);
 59c:	79 01       	movw	r14, r18
 59e:	e8 0e       	add	r14, r24
 5a0:	f1 1c       	adc	r15, r1
 5a2:	4a 89       	ldd	r20, Y+18	; 0x12
 5a4:	7b 89       	ldd	r23, Y+19	; 0x13
 5a6:	76 ce       	rjmp	.-788    	; 0x294 <main+0x1ce>
						eeprom_write_byte((uint8_t*)17, rs232_rx_buffer[2]);
					}
					break;
				
				case 'j': // set vmh_cal
					if(rs232_rx_idx==3)
 5a8:	80 91 42 01 	lds	r24, 0x0142
 5ac:	83 30       	cpi	r24, 0x03	; 3
 5ae:	09 f0       	breq	.+2      	; 0x5b2 <main+0x4ec>
 5b0:	71 ce       	rjmp	.-798    	; 0x294 <main+0x1ce>
					{
						rs232_rx_idx = 0;
 5b2:	10 92 42 01 	sts	0x0142, r1
						eeprom_write_byte((uint8_t*)18, rs232_rx_buffer[1]);
 5b6:	60 91 03 01 	lds	r22, 0x0103
 5ba:	82 e1       	ldi	r24, 0x12	; 18
 5bc:	90 e0       	ldi	r25, 0x00	; 0
 5be:	4a 8b       	std	Y+18, r20	; 0x12
 5c0:	7b 8b       	std	Y+19, r23	; 0x13
 5c2:	0e 94 55 06 	call	0xcaa	; 0xcaa <eeprom_write_byte>
						eeprom_write_byte((uint8_t*)19, rs232_rx_buffer[2]);
 5c6:	60 91 04 01 	lds	r22, 0x0104
 5ca:	83 e1       	ldi	r24, 0x13	; 19
 5cc:	90 e0       	ldi	r25, 0x00	; 0
 5ce:	0e 94 55 06 	call	0xcaa	; 0xcaa <eeprom_write_byte>
 5d2:	4a 89       	ldd	r20, Y+18	; 0x12
 5d4:	7b 89       	ldd	r23, Y+19	; 0x13
 5d6:	5e ce       	rjmp	.-836    	; 0x294 <main+0x1ce>
						eeprom_write_byte((uint8_t*)3, mesure_cha);
					}
					break;
				
				case 's': // set setting
					if(rs232_rx_idx==3)
 5d8:	80 91 42 01 	lds	r24, 0x0142
 5dc:	83 30       	cpi	r24, 0x03	; 3
 5de:	09 f0       	breq	.+2      	; 0x5e2 <main+0x51c>
 5e0:	59 ce       	rjmp	.-846    	; 0x294 <main+0x1ce>
					{
						rs232_rx_idx = 0;
 5e2:	10 92 42 01 	sts	0x0142, r1
						setting = rs232_rx_buffer[1]*256 + rs232_rx_buffer[2];
 5e6:	80 91 03 01 	lds	r24, 0x0103
 5ea:	20 91 04 01 	lds	r18, 0x0104
 5ee:	90 e0       	ldi	r25, 0x00	; 0
 5f0:	98 2f       	mov	r25, r24
 5f2:	88 27       	eor	r24, r24
 5f4:	fc 01       	movw	r30, r24
 5f6:	e2 0f       	add	r30, r18
 5f8:	f1 1d       	adc	r31, r1
 5fa:	fe 87       	std	Y+14, r31	; 0x0e
 5fc:	ed 87       	std	Y+13, r30	; 0x0d
						eeprom_write_byte((uint8_t*)4, rs232_rx_buffer[1]);
 5fe:	60 91 03 01 	lds	r22, 0x0103
 602:	84 e0       	ldi	r24, 0x04	; 4
 604:	90 e0       	ldi	r25, 0x00	; 0
 606:	4a 8b       	std	Y+18, r20	; 0x12
 608:	7b 8b       	std	Y+19, r23	; 0x13
 60a:	0e 94 55 06 	call	0xcaa	; 0xcaa <eeprom_write_byte>
						eeprom_write_byte((uint8_t*)5, rs232_rx_buffer[2]);
 60e:	60 91 04 01 	lds	r22, 0x0104
 612:	85 e0       	ldi	r24, 0x05	; 5
 614:	90 e0       	ldi	r25, 0x00	; 0
 616:	0e 94 55 06 	call	0xcaa	; 0xcaa <eeprom_write_byte>
 61a:	4a 89       	ldd	r20, Y+18	; 0x12
 61c:	7b 89       	ldd	r23, Y+19	; 0x13
 61e:	3a ce       	rjmp	.-908    	; 0x294 <main+0x1ce>
						eeprom_write_byte((uint8_t*)9, rs232_rx_buffer[2]);
					}
					break;
				
				case 'f': // set vmil_offset
					if(rs232_rx_idx==3)
 620:	80 91 42 01 	lds	r24, 0x0142
 624:	83 30       	cpi	r24, 0x03	; 3
 626:	09 f0       	breq	.+2      	; 0x62a <main+0x564>
 628:	35 ce       	rjmp	.-918    	; 0x294 <main+0x1ce>
					{
						rs232_rx_idx = 0;
 62a:	10 92 42 01 	sts	0x0142, r1
						eeprom_write_byte((uint8_t*)10, rs232_rx_buffer[1]);
 62e:	60 91 03 01 	lds	r22, 0x0103
 632:	8a e0       	ldi	r24, 0x0A	; 10
 634:	90 e0       	ldi	r25, 0x00	; 0
 636:	4a 8b       	std	Y+18, r20	; 0x12
 638:	7b 8b       	std	Y+19, r23	; 0x13
 63a:	0e 94 55 06 	call	0xcaa	; 0xcaa <eeprom_write_byte>
						eeprom_write_byte((uint8_t*)11, rs232_rx_buffer[2]);
 63e:	60 91 04 01 	lds	r22, 0x0104
 642:	8b e0       	ldi	r24, 0x0B	; 11
 644:	90 e0       	ldi	r25, 0x00	; 0
 646:	0e 94 55 06 	call	0xcaa	; 0xcaa <eeprom_write_byte>
 64a:	4a 89       	ldd	r20, Y+18	; 0x12
 64c:	7b 89       	ldd	r23, Y+19	; 0x13
 64e:	22 ce       	rjmp	.-956    	; 0x294 <main+0x1ce>
						PWM_SET4;
					}
					break;
				
				case 'm': // set mesure_cha
					if(rs232_rx_idx==2)
 650:	80 91 42 01 	lds	r24, 0x0142
 654:	82 30       	cpi	r24, 0x02	; 2
 656:	09 f0       	breq	.+2      	; 0x65a <main+0x594>
 658:	1d ce       	rjmp	.-966    	; 0x294 <main+0x1ce>
					{
						rs232_rx_idx = 0;
 65a:	10 92 42 01 	sts	0x0142, r1
						mesure_cha = rs232_rx_buffer[1];
 65e:	60 90 03 01 	lds	r6, 0x0103
						eeprom_write_byte((uint8_t*)3, mesure_cha);
 662:	66 2d       	mov	r22, r6
 664:	83 e0       	ldi	r24, 0x03	; 3
 666:	90 e0       	ldi	r25, 0x00	; 0
 668:	3c c1       	rjmp	.+632    	; 0x8e2 <main+0x81c>
						eeprom_write_byte((uint8_t*)13, rs232_rx_buffer[2]);
					}
					break;
				
				case 'h': // set vmih_offset
					if(rs232_rx_idx==3)
 66a:	80 91 42 01 	lds	r24, 0x0142
 66e:	83 30       	cpi	r24, 0x03	; 3
 670:	09 f0       	breq	.+2      	; 0x674 <main+0x5ae>
 672:	10 ce       	rjmp	.-992    	; 0x294 <main+0x1ce>
					{
						rs232_rx_idx = 0;
 674:	10 92 42 01 	sts	0x0142, r1
						eeprom_write_byte((uint8_t*)14, rs232_rx_buffer[1]);
 678:	60 91 03 01 	lds	r22, 0x0103
 67c:	8e e0       	ldi	r24, 0x0E	; 14
 67e:	90 e0       	ldi	r25, 0x00	; 0
 680:	4a 8b       	std	Y+18, r20	; 0x12
 682:	7b 8b       	std	Y+19, r23	; 0x13
 684:	0e 94 55 06 	call	0xcaa	; 0xcaa <eeprom_write_byte>
						eeprom_write_byte((uint8_t*)15, rs232_rx_buffer[2]);
 688:	60 91 04 01 	lds	r22, 0x0104
 68c:	8f e0       	ldi	r24, 0x0F	; 15
 68e:	90 e0       	ldi	r25, 0x00	; 0
 690:	0e 94 55 06 	call	0xcaa	; 0xcaa <eeprom_write_byte>
 694:	4a 89       	ldd	r20, Y+18	; 0x12
 696:	7b 89       	ldd	r23, Y+19	; 0x13
 698:	fd cd       	rjmp	.-1030   	; 0x294 <main+0x1ce>
								+ eeprom_read_byte((uint8_t*)2);
					}
					break;
				
				case 'p': // set pwm_run
					if(rs232_rx_idx==2)
 69a:	80 91 42 01 	lds	r24, 0x0142
 69e:	82 30       	cpi	r24, 0x02	; 2
 6a0:	09 f0       	breq	.+2      	; 0x6a4 <main+0x5de>
 6a2:	f8 cd       	rjmp	.-1040   	; 0x294 <main+0x1ce>
					{
						rs232_rx_idx = 0;
 6a4:	10 92 42 01 	sts	0x0142, r1
						pwm_run = rs232_rx_buffer[1];
 6a8:	80 91 03 01 	lds	r24, 0x0103
 6ac:	80 93 06 01 	sts	0x0106, r24
						eeprom_write_byte((uint8_t*)7, pwm_run);
 6b0:	60 91 06 01 	lds	r22, 0x0106
 6b4:	87 e0       	ldi	r24, 0x07	; 7
 6b6:	90 e0       	ldi	r25, 0x00	; 0
 6b8:	4a 8b       	std	Y+18, r20	; 0x12
 6ba:	7b 8b       	std	Y+19, r23	; 0x13
 6bc:	0e 94 55 06 	call	0xcaa	; 0xcaa <eeprom_write_byte>
						if(pwm_run)
 6c0:	80 91 06 01 	lds	r24, 0x0106
 6c4:	4a 89       	ldd	r20, Y+18	; 0x12
 6c6:	7b 89       	ldd	r23, Y+19	; 0x13
 6c8:	88 23       	and	r24, r24
 6ca:	09 f4       	brne	.+2      	; 0x6ce <main+0x608>
 6cc:	c4 c1       	rjmp	.+904    	; 0xa56 <__stack+0x157>
						{
							duty_cycle =
								eeprom_read_byte((uint8_t*)1)*256
 6ce:	81 e0       	ldi	r24, 0x01	; 1
 6d0:	90 e0       	ldi	r25, 0x00	; 0
 6d2:	0e 94 4d 06 	call	0xc9a	; 0xc9a <eeprom_read_byte>
 6d6:	f8 2e       	mov	r15, r24
								+ eeprom_read_byte((uint8_t*)2);
 6d8:	82 e0       	ldi	r24, 0x02	; 2
 6da:	90 e0       	ldi	r25, 0x00	; 0
 6dc:	0e 94 4d 06 	call	0xc9a	; 0xc9a <eeprom_read_byte>
						pwm_run = rs232_rx_buffer[1];
						eeprom_write_byte((uint8_t*)7, pwm_run);
						if(pwm_run)
						{
							duty_cycle =
								eeprom_read_byte((uint8_t*)1)*256
 6e0:	2f 2d       	mov	r18, r15
 6e2:	30 e0       	ldi	r19, 0x00	; 0
 6e4:	32 2f       	mov	r19, r18
 6e6:	22 27       	eor	r18, r18
								+ eeprom_read_byte((uint8_t*)2);
 6e8:	79 01       	movw	r14, r18
 6ea:	e8 0e       	add	r14, r24
 6ec:	f1 1c       	adc	r15, r1
 6ee:	1f c0       	rjmp	.+62     	; 0x72e <main+0x668>
						eeprom_write_byte((uint8_t*)0,rs232_rx_buffer[1]);
					}
					break;
				
				case 'd': // set duty_cycle
					if(rs232_rx_idx==3)
 6f0:	80 91 42 01 	lds	r24, 0x0142
 6f4:	83 30       	cpi	r24, 0x03	; 3
 6f6:	09 f0       	breq	.+2      	; 0x6fa <main+0x634>
 6f8:	cd cd       	rjmp	.-1126   	; 0x294 <main+0x1ce>
					{
						rs232_rx_idx = 0;
 6fa:	10 92 42 01 	sts	0x0142, r1
						eeprom_write_byte((uint8_t*)1,rs232_rx_buffer[1]);
 6fe:	60 91 03 01 	lds	r22, 0x0103
 702:	81 e0       	ldi	r24, 0x01	; 1
 704:	90 e0       	ldi	r25, 0x00	; 0
 706:	4a 8b       	std	Y+18, r20	; 0x12
 708:	7b 8b       	std	Y+19, r23	; 0x13
 70a:	0e 94 55 06 	call	0xcaa	; 0xcaa <eeprom_write_byte>
						eeprom_write_byte((uint8_t*)2,rs232_rx_buffer[2]);
 70e:	60 91 04 01 	lds	r22, 0x0104
 712:	82 e0       	ldi	r24, 0x02	; 2
 714:	90 e0       	ldi	r25, 0x00	; 0
 716:	0e 94 55 06 	call	0xcaa	; 0xcaa <eeprom_write_byte>
						duty_cycle = rs232_rx_buffer[1]*256+rs232_rx_buffer[2];
 71a:	80 91 03 01 	lds	r24, 0x0103
 71e:	20 91 04 01 	lds	r18, 0x0104
 722:	90 e0       	ldi	r25, 0x00	; 0
 724:	98 2f       	mov	r25, r24
 726:	88 27       	eor	r24, r24
 728:	7c 01       	movw	r14, r24
 72a:	e2 0e       	add	r14, r18
 72c:	f1 1c       	adc	r15, r1
						if(pwm_run)
						{
							duty_cycle =
								eeprom_read_byte((uint8_t*)1)*256
								+ eeprom_read_byte((uint8_t*)2);
							PWM_SET1;
 72e:	c7 01       	movw	r24, r14
 730:	96 95       	lsr	r25
 732:	87 95       	ror	r24
 734:	96 95       	lsr	r25
 736:	87 95       	ror	r24
 738:	96 95       	lsr	r25
 73a:	87 95       	ror	r24
 73c:	80 93 48 01 	sts	0x0148, r24
 740:	80 91 48 01 	lds	r24, 0x0148
 744:	8f 5f       	subi	r24, 0xFF	; 255
 746:	80 93 4a 01 	sts	0x014A, r24
 74a:	8e 2d       	mov	r24, r14
 74c:	87 70       	andi	r24, 0x07	; 7
 74e:	80 93 47 01 	sts	0x0147, r24
 752:	80 91 48 01 	lds	r24, 0x0148
 756:	4a 89       	ldd	r20, Y+18	; 0x12
 758:	7b 89       	ldd	r23, Y+19	; 0x13
 75a:	88 30       	cpi	r24, 0x08	; 8
 75c:	28 f4       	brcc	.+10     	; 0x768 <main+0x6a2>
 75e:	f8 e0       	ldi	r31, 0x08	; 8
 760:	f0 93 48 01 	sts	0x0148, r31
 764:	10 92 47 01 	sts	0x0147, r1
							PWM_SET2;
 768:	80 91 48 01 	lds	r24, 0x0148
 76c:	89 34       	cpi	r24, 0x49	; 73
 76e:	28 f0       	brcs	.+10     	; 0x77a <main+0x6b4>
 770:	28 e4       	ldi	r18, 0x48	; 72
 772:	20 93 48 01 	sts	0x0148, r18
 776:	10 92 47 01 	sts	0x0147, r1
 77a:	80 91 47 01 	lds	r24, 0x0147
 77e:	88 23       	and	r24, r24
 780:	09 f4       	brne	.+2      	; 0x784 <main+0x6be>
 782:	55 c1       	rjmp	.+682    	; 0xa2e <__stack+0x12f>
 784:	80 91 4a 01 	lds	r24, 0x014A
 788:	80 93 08 01 	sts	0x0108, r24
 78c:	80 91 47 01 	lds	r24, 0x0147
 790:	82 30       	cpi	r24, 0x02	; 2
 792:	08 f4       	brcc	.+2      	; 0x796 <main+0x6d0>
 794:	55 c1       	rjmp	.+682    	; 0xa40 <__stack+0x141>
 796:	80 91 4a 01 	lds	r24, 0x014A
 79a:	80 93 09 01 	sts	0x0109, r24
 79e:	80 91 47 01 	lds	r24, 0x0147
 7a2:	83 30       	cpi	r24, 0x03	; 3
 7a4:	08 f4       	brcc	.+2      	; 0x7a8 <main+0x6e2>
 7a6:	40 c1       	rjmp	.+640    	; 0xa28 <__stack+0x129>
 7a8:	80 91 4a 01 	lds	r24, 0x014A
 7ac:	80 93 0a 01 	sts	0x010A, r24
							PWM_SET3;
 7b0:	80 91 47 01 	lds	r24, 0x0147
 7b4:	84 30       	cpi	r24, 0x04	; 4
 7b6:	08 f4       	brcc	.+2      	; 0x7ba <main+0x6f4>
 7b8:	34 c1       	rjmp	.+616    	; 0xa22 <__stack+0x123>
 7ba:	80 91 4a 01 	lds	r24, 0x014A
 7be:	80 93 0b 01 	sts	0x010B, r24
 7c2:	80 91 47 01 	lds	r24, 0x0147
 7c6:	85 30       	cpi	r24, 0x05	; 5
 7c8:	08 f4       	brcc	.+2      	; 0x7cc <main+0x706>
 7ca:	28 c1       	rjmp	.+592    	; 0xa1c <__stack+0x11d>
 7cc:	80 91 4a 01 	lds	r24, 0x014A
 7d0:	80 93 0c 01 	sts	0x010C, r24
 7d4:	80 91 47 01 	lds	r24, 0x0147
 7d8:	86 30       	cpi	r24, 0x06	; 6
 7da:	08 f4       	brcc	.+2      	; 0x7de <main+0x718>
 7dc:	1c c1       	rjmp	.+568    	; 0xa16 <__stack+0x117>
 7de:	80 91 4a 01 	lds	r24, 0x014A
 7e2:	80 93 0d 01 	sts	0x010D, r24
 7e6:	80 91 47 01 	lds	r24, 0x0147
 7ea:	87 30       	cpi	r24, 0x07	; 7
 7ec:	08 f4       	brcc	.+2      	; 0x7f0 <main+0x72a>
 7ee:	10 c1       	rjmp	.+544    	; 0xa10 <__stack+0x111>
 7f0:	80 91 4a 01 	lds	r24, 0x014A
 7f4:	80 93 0e 01 	sts	0x010E, r24
							PWM_SET4;
 7f8:	80 91 47 01 	lds	r24, 0x0147
 7fc:	88 30       	cpi	r24, 0x08	; 8
 7fe:	08 f4       	brcc	.+2      	; 0x802 <main+0x73c>
 800:	04 c1       	rjmp	.+520    	; 0xa0a <__stack+0x10b>
 802:	80 91 4a 01 	lds	r24, 0x014A
 806:	80 93 0f 01 	sts	0x010F, r24
 80a:	44 cd       	rjmp	.-1400   	; 0x294 <main+0x1ce>
						eeprom_write_byte((uint8_t*)19, rs232_rx_buffer[2]);
					}
					break;
				
				case 'k': // set vmt1_cal
					if(rs232_rx_idx==3)
 80c:	80 91 42 01 	lds	r24, 0x0142
 810:	83 30       	cpi	r24, 0x03	; 3
 812:	09 f0       	breq	.+2      	; 0x816 <main+0x750>
 814:	3f cd       	rjmp	.-1410   	; 0x294 <main+0x1ce>
					{
						rs232_rx_idx = 0;
 816:	10 92 42 01 	sts	0x0142, r1
						eeprom_write_byte((uint8_t*)20, rs232_rx_buffer[1]);
 81a:	60 91 03 01 	lds	r22, 0x0103
 81e:	84 e1       	ldi	r24, 0x14	; 20
 820:	90 e0       	ldi	r25, 0x00	; 0
 822:	4a 8b       	std	Y+18, r20	; 0x12
 824:	7b 8b       	std	Y+19, r23	; 0x13
 826:	0e 94 55 06 	call	0xcaa	; 0xcaa <eeprom_write_byte>
						eeprom_write_byte((uint8_t*)21, rs232_rx_buffer[2]);
 82a:	60 91 04 01 	lds	r22, 0x0104
 82e:	85 e1       	ldi	r24, 0x15	; 21
 830:	90 e0       	ldi	r25, 0x00	; 0
 832:	0e 94 55 06 	call	0xcaa	; 0xcaa <eeprom_write_byte>
 836:	4a 89       	ldd	r20, Y+18	; 0x12
 838:	7b 89       	ldd	r23, Y+19	; 0x13
 83a:	2c cd       	rjmp	.-1448   	; 0x294 <main+0x1ce>
						eeprom_write_byte((uint8_t*)15, rs232_rx_buffer[2]);
					}
					break;
				
				case 'i': // set vml_cal
					if(rs232_rx_idx==3)
 83c:	80 91 42 01 	lds	r24, 0x0142
 840:	83 30       	cpi	r24, 0x03	; 3
 842:	09 f0       	breq	.+2      	; 0x846 <main+0x780>
 844:	27 cd       	rjmp	.-1458   	; 0x294 <main+0x1ce>
					{
						rs232_rx_idx = 0;
 846:	10 92 42 01 	sts	0x0142, r1
						eeprom_write_byte((uint8_t*)16, rs232_rx_buffer[1]);
 84a:	60 91 03 01 	lds	r22, 0x0103
 84e:	80 e1       	ldi	r24, 0x10	; 16
 850:	90 e0       	ldi	r25, 0x00	; 0
 852:	4a 8b       	std	Y+18, r20	; 0x12
 854:	7b 8b       	std	Y+19, r23	; 0x13
 856:	0e 94 55 06 	call	0xcaa	; 0xcaa <eeprom_write_byte>
						eeprom_write_byte((uint8_t*)17, rs232_rx_buffer[2]);
 85a:	60 91 04 01 	lds	r22, 0x0104
 85e:	81 e1       	ldi	r24, 0x11	; 17
 860:	90 e0       	ldi	r25, 0x00	; 0
 862:	0e 94 55 06 	call	0xcaa	; 0xcaa <eeprom_write_byte>
 866:	4a 89       	ldd	r20, Y+18	; 0x12
 868:	7b 89       	ldd	r23, Y+19	; 0x13
 86a:	14 cd       	rjmp	.-1496   	; 0x294 <main+0x1ce>
						else pwm_stop();
					}
					break;				

				case 'e': // set vmil_cal
					if(rs232_rx_idx==3)
 86c:	80 91 42 01 	lds	r24, 0x0142
 870:	83 30       	cpi	r24, 0x03	; 3
 872:	09 f0       	breq	.+2      	; 0x876 <main+0x7b0>
 874:	0f cd       	rjmp	.-1506   	; 0x294 <main+0x1ce>
					{
						rs232_rx_idx = 0;
 876:	10 92 42 01 	sts	0x0142, r1
						eeprom_write_byte((uint8_t*)8, rs232_rx_buffer[1]);
 87a:	60 91 03 01 	lds	r22, 0x0103
 87e:	88 e0       	ldi	r24, 0x08	; 8
 880:	90 e0       	ldi	r25, 0x00	; 0
 882:	4a 8b       	std	Y+18, r20	; 0x12
 884:	7b 8b       	std	Y+19, r23	; 0x13
 886:	0e 94 55 06 	call	0xcaa	; 0xcaa <eeprom_write_byte>
						eeprom_write_byte((uint8_t*)9, rs232_rx_buffer[2]);
 88a:	60 91 04 01 	lds	r22, 0x0104
 88e:	89 e0       	ldi	r24, 0x09	; 9
 890:	90 e0       	ldi	r25, 0x00	; 0
 892:	0e 94 55 06 	call	0xcaa	; 0xcaa <eeprom_write_byte>
 896:	4a 89       	ldd	r20, Y+18	; 0x12
 898:	7b 89       	ldd	r23, Y+19	; 0x13
 89a:	fc cc       	rjmp	.-1544   	; 0x294 <main+0x1ce>
						eeprom_write_byte((uint8_t*)11, rs232_rx_buffer[2]);
					}
					break;
				
				case 'g': // set vmih_cal
					if(rs232_rx_idx==3)
 89c:	80 91 42 01 	lds	r24, 0x0142
 8a0:	83 30       	cpi	r24, 0x03	; 3
 8a2:	09 f0       	breq	.+2      	; 0x8a6 <main+0x7e0>
 8a4:	f7 cc       	rjmp	.-1554   	; 0x294 <main+0x1ce>
					{
						rs232_rx_idx = 0;
 8a6:	10 92 42 01 	sts	0x0142, r1
						eeprom_write_byte((uint8_t*)12, rs232_rx_buffer[1]);
 8aa:	60 91 03 01 	lds	r22, 0x0103
 8ae:	8c e0       	ldi	r24, 0x0C	; 12
 8b0:	90 e0       	ldi	r25, 0x00	; 0
 8b2:	4a 8b       	std	Y+18, r20	; 0x12
 8b4:	7b 8b       	std	Y+19, r23	; 0x13
 8b6:	0e 94 55 06 	call	0xcaa	; 0xcaa <eeprom_write_byte>
						eeprom_write_byte((uint8_t*)13, rs232_rx_buffer[2]);
 8ba:	60 91 04 01 	lds	r22, 0x0104
 8be:	8d e0       	ldi	r24, 0x0D	; 13
 8c0:	90 e0       	ldi	r25, 0x00	; 0
 8c2:	0e 94 55 06 	call	0xcaa	; 0xcaa <eeprom_write_byte>
 8c6:	4a 89       	ldd	r20, Y+18	; 0x12
 8c8:	7b 89       	ldd	r23, Y+19	; 0x13
 8ca:	e4 cc       	rjmp	.-1592   	; 0x294 <main+0x1ce>
			rs232_rx_flag = 0;	// reset rx flag

			switch(rs232_rx_buffer[0])
			{	
				case 'b': // set board_id
					if(rs232_rx_idx==2)
 8cc:	80 91 42 01 	lds	r24, 0x0142
 8d0:	82 30       	cpi	r24, 0x02	; 2
 8d2:	09 f0       	breq	.+2      	; 0x8d6 <main+0x810>
 8d4:	df cc       	rjmp	.-1602   	; 0x294 <main+0x1ce>
					{
						rs232_rx_idx = 0;
 8d6:	10 92 42 01 	sts	0x0142, r1
						eeprom_write_byte((uint8_t*)0,rs232_rx_buffer[1]);
 8da:	60 91 03 01 	lds	r22, 0x0103
 8de:	80 e0       	ldi	r24, 0x00	; 0
 8e0:	90 e0       	ldi	r25, 0x00	; 0
				case 'm': // set mesure_cha
					if(rs232_rx_idx==2)
					{
						rs232_rx_idx = 0;
						mesure_cha = rs232_rx_buffer[1];
						eeprom_write_byte((uint8_t*)3, mesure_cha);
 8e2:	4a 8b       	std	Y+18, r20	; 0x12
 8e4:	7b 8b       	std	Y+19, r23	; 0x13
 8e6:	0e 94 55 06 	call	0xcaa	; 0xcaa <eeprom_write_byte>
 8ea:	4a 89       	ldd	r20, Y+18	; 0x12
 8ec:	7b 89       	ldd	r23, Y+19	; 0x13
 8ee:	d2 cc       	rjmp	.-1628   	; 0x294 <main+0x1ce>
 8f0:	c7 01       	movw	r24, r14
 8f2:	96 95       	lsr	r25
 8f4:	87 95       	ror	r24
 8f6:	96 95       	lsr	r25
 8f8:	87 95       	ror	r24
 8fa:	96 95       	lsr	r25
 8fc:	87 95       	ror	r24
 8fe:	9e 2d       	mov	r25, r14
 900:	97 70       	andi	r25, 0x07	; 7
 902:	22 cd       	rjmp	.-1468   	; 0x348 <main+0x282>
				
			case 3:
				//PORTC |= 1;
				
				/** Feedback step 8 */
				PWM_SET3;
 904:	80 91 48 01 	lds	r24, 0x0148
 908:	bc cd       	rjmp	.-1160   	; 0x482 <main+0x3bc>
 90a:	80 91 48 01 	lds	r24, 0x0148
 90e:	b0 cd       	rjmp	.-1184   	; 0x470 <main+0x3aa>
 910:	80 91 48 01 	lds	r24, 0x0148
 914:	a4 cd       	rjmp	.-1208   	; 0x45e <main+0x398>
 916:	80 91 48 01 	lds	r24, 0x0148
 91a:	98 cd       	rjmp	.-1232   	; 0x44c <main+0x386>
				
			case 5:
				//PORTC |= 1;
				
				/** Feedback step 9 */
				PWM_SET4;
 91c:	80 91 48 01 	lds	r24, 0x0148
 920:	80 93 0f 01 	sts	0x010F, r24
				
				//PORTC &= ~1;
				//PORTC |= 1;
				
				/** Feedback step 2 */
				SPI_2;
 924:	80 91 45 01 	lds	r24, 0x0145
 928:	8e bd       	out	0x2e, r24	; 46
				//PORTC &= ~1;
				//PORTC |= 1;
				
				/** DAQ step 6 (every 3840µs) */
				//* Averaging 8 mesures per channel
				if(daq_avg_ct == 8)
 92a:	78 30       	cpi	r23, 0x08	; 8
 92c:	09 f0       	breq	.+2      	; 0x930 <__stack+0x31>
 92e:	f0 cc       	rjmp	.-1568   	; 0x310 <main+0x24a>
				{
					//* >> 3 to divide by 8, 8+3=11 for msb
					daq_avg_hight = (uint8_t)(daq_accu[daq_avg_idx] >> 11);
 930:	2f 85       	ldd	r18, Y+15	; 0x0f
 932:	e2 2f       	mov	r30, r18
 934:	f0 e0       	ldi	r31, 0x00	; 0
 936:	ee 0f       	add	r30, r30
 938:	ff 1f       	adc	r31, r31
 93a:	e4 0d       	add	r30, r4
 93c:	f5 1d       	adc	r31, r5
 93e:	80 81       	ld	r24, Z
 940:	91 81       	ldd	r25, Z+1	; 0x01
 942:	59 2f       	mov	r21, r25
 944:	56 95       	lsr	r21
 946:	56 95       	lsr	r21
 948:	56 95       	lsr	r21
 94a:	58 8b       	std	Y+16, r21	; 0x10
					daq_avg_low = (uint8_t)(daq_accu[daq_avg_idx] >> 3);
 94c:	96 95       	lsr	r25
 94e:	87 95       	ror	r24
 950:	96 95       	lsr	r25
 952:	87 95       	ror	r24
 954:	96 95       	lsr	r25
 956:	87 95       	ror	r24
 958:	89 8b       	std	Y+17, r24	; 0x11
					daq_accu[daq_avg_idx] = 0; // reset accumulator
 95a:	11 82       	std	Z+1, r1	; 0x01
 95c:	10 82       	st	Z, r1
 95e:	36 e0       	ldi	r19, 0x06	; 6
 960:	83 2e       	mov	r8, r19
 962:	91 2c       	mov	r9, r1
 964:	a1 2c       	mov	r10, r1
 966:	b1 2c       	mov	r11, r1
 968:	b0 cc       	rjmp	.-1696   	; 0x2ca <main+0x204>
			case 2:
				//PORTC |= 1;
				
				/** Feedback step 7 */
				//** setting new pwm duty cycle step 2 */
				PWM_SET2;
 96a:	80 91 48 01 	lds	r24, 0x0148
 96e:	e9 cd       	rjmp	.-1070   	; 0x542 <main+0x47c>
 970:	80 91 48 01 	lds	r24, 0x0148
 974:	80 93 08 01 	sts	0x0108, r24
 978:	80 91 47 01 	lds	r24, 0x0147
 97c:	82 30       	cpi	r24, 0x02	; 2
 97e:	08 f0       	brcs	.+2      	; 0x982 <__stack+0x83>
 980:	d5 cd       	rjmp	.-1110   	; 0x52c <main+0x466>
 982:	80 91 48 01 	lds	r24, 0x0148
 986:	d4 cd       	rjmp	.-1112   	; 0x530 <main+0x46a>
				
				//PORTC &= ~1;
				//PORTC |= 1;
				
				/** DAQ step 5 bis (delayed for DAQ_LAUNCH regularity) */
				if(daq_prev_idx == 5) daq_avg_ct++;
 988:	7f 5f       	subi	r23, 0xFF	; 255
 98a:	55 e0       	ldi	r21, 0x05	; 5
 98c:	85 2e       	mov	r8, r21
 98e:	91 2c       	mov	r9, r1
 990:	a1 2c       	mov	r10, r1
 992:	b1 2c       	mov	r11, r1
 994:	9a cc       	rjmp	.-1740   	; 0x2ca <main+0x204>

				/** DAQ step 7 */
				//** transfert raw mesure data into TX buffer */
				if(daq_avg_ct == 8)
				{
					rs232_tx_buffer[rs232_tx_fill_idx++] = daq_avg_hight;
 996:	e2 2d       	mov	r30, r2
 998:	f0 e0       	ldi	r31, 0x00	; 0
 99a:	e0 5f       	subi	r30, 0xF0	; 240
 99c:	fe 4f       	sbci	r31, 0xFE	; 254
 99e:	28 89       	ldd	r18, Y+16	; 0x10
 9a0:	20 83       	st	Z, r18
 9a2:	e1 e0       	ldi	r30, 0x01	; 1
 9a4:	e2 0d       	add	r30, r2
					rs232_tx_buffer[rs232_tx_fill_idx++] = daq_avg_low;
 9a6:	f0 e0       	ldi	r31, 0x00	; 0
 9a8:	e0 5f       	subi	r30, 0xF0	; 240
 9aa:	fe 4f       	sbci	r31, 0xFE	; 254
 9ac:	59 89       	ldd	r21, Y+17	; 0x11
 9ae:	50 83       	st	Z, r21
					
					if(daq_avg_idx == 5) // all mesures where buffered
 9b0:	2f 85       	ldd	r18, Y+15	; 0x0f
 9b2:	25 30       	cpi	r18, 0x05	; 5
 9b4:	01 f1       	breq	.+64     	; 0x9f6 <__stack+0xf7>
 9b6:	52 2f       	mov	r21, r18
				/** DAQ step 7 */
				//** transfert raw mesure data into TX buffer */
				if(daq_avg_ct == 8)
				{
					rs232_tx_buffer[rs232_tx_fill_idx++] = daq_avg_hight;
					rs232_tx_buffer[rs232_tx_fill_idx++] = daq_avg_low;
 9b8:	23 94       	inc	r2
 9ba:	23 94       	inc	r2
						rs232_tx_trig = 1;
						
						daq_avg_idx = 0; // reset index
						daq_avg_ct = 0; // reset avg counter
					}
					else daq_avg_idx++; // increment index
 9bc:	5f 5f       	subi	r21, 0xFF	; 255
 9be:	5f 87       	std	Y+15, r21	; 0x0f
 9c0:	7b cc       	rjmp	.-1802   	; 0x2b8 <main+0x1f2>
				/** DAQ setp 1 */
				DAQ_LAUNCH(daq_accu_idx); // Launch mesure for DAQ				
				//* loop over the six channels every 480µs */
				daq_prev_idx = daq_accu_idx;
				daq_accu_idx++;
				if(daq_accu_idx == 6) daq_accu_idx = 0;
 9c2:	71 2c       	mov	r7, r1
 9c4:	81 2c       	mov	r8, r1
 9c6:	91 2c       	mov	r9, r1
 9c8:	54 01       	movw	r10, r8
 9ca:	83 94       	inc	r8
 9cc:	7e cc       	rjmp	.-1796   	; 0x2ca <main+0x204>
				/** DAQ step 8 */
				//** forward serial transfert **/
				if(rs232_tx_flag && ++rs232_fwd_ct==3)
				{
					rs232_fwd_ct=0;
					RS232_FWD;
 9ce:	e0 91 01 01 	lds	r30, 0x0101
 9d2:	81 e0       	ldi	r24, 0x01	; 1
 9d4:	8e 0f       	add	r24, r30
 9d6:	80 93 01 01 	sts	0x0101, r24
 9da:	f0 e0       	ldi	r31, 0x00	; 0
 9dc:	e0 5f       	subi	r30, 0xF0	; 240
 9de:	fe 4f       	sbci	r31, 0xFE	; 254
 9e0:	80 81       	ld	r24, Z
 9e2:	80 93 c6 00 	sts	0x00C6, r24
 9e6:	90 91 01 01 	lds	r25, 0x0101
 9ea:	80 91 07 01 	lds	r24, 0x0107
 9ee:	98 17       	cp	r25, r24
 9f0:	51 f1       	breq	.+84     	; 0xa46 <__stack+0x147>
				
				/** DAQ step 8 */
				//** forward serial transfert **/
				if(rs232_tx_flag && ++rs232_fwd_ct==3)
				{
					rs232_fwd_ct=0;
 9f2:	c1 2c       	mov	r12, r1
 9f4:	cd cc       	rjmp	.-1638   	; 0x390 <main+0x2ca>
					if(daq_avg_idx == 5) // all mesures where buffered
					{
						rs232_tx_fill_idx = 0;
						
						/* buffering current PWM value */
						rs232_tx_buffer[12] = duty_cycle>>8;
 9f6:	f0 92 1c 01 	sts	0x011C, r15
						rs232_tx_buffer[13] = (uint8_t)(duty_cycle&0x00ff);
 9fa:	e0 92 1d 01 	sts	0x011D, r14
						rs232_tx_trig = 1;
						
						daq_avg_idx = 0; // reset index
 9fe:	1f 86       	std	Y+15, r1	; 0x0f
						daq_avg_ct = 0; // reset avg counter
 a00:	70 e0       	ldi	r23, 0x00	; 0
						rs232_tx_fill_idx = 0;
						
						/* buffering current PWM value */
						rs232_tx_buffer[12] = duty_cycle>>8;
						rs232_tx_buffer[13] = (uint8_t)(duty_cycle&0x00ff);
						rs232_tx_trig = 1;
 a02:	dd 24       	eor	r13, r13
 a04:	d3 94       	inc	r13
					rs232_tx_buffer[rs232_tx_fill_idx++] = daq_avg_hight;
					rs232_tx_buffer[rs232_tx_fill_idx++] = daq_avg_low;
					
					if(daq_avg_idx == 5) // all mesures where buffered
					{
						rs232_tx_fill_idx = 0;
 a06:	21 2c       	mov	r2, r1
 a08:	57 cc       	rjmp	.-1874   	; 0x2b8 <main+0x1f2>
								eeprom_read_byte((uint8_t*)1)*256
								+ eeprom_read_byte((uint8_t*)2);
							PWM_SET1;
							PWM_SET2;
							PWM_SET3;
							PWM_SET4;
 a0a:	80 91 48 01 	lds	r24, 0x0148
 a0e:	fb ce       	rjmp	.-522    	; 0x806 <main+0x740>
							duty_cycle =
								eeprom_read_byte((uint8_t*)1)*256
								+ eeprom_read_byte((uint8_t*)2);
							PWM_SET1;
							PWM_SET2;
							PWM_SET3;
 a10:	80 91 48 01 	lds	r24, 0x0148
 a14:	ef ce       	rjmp	.-546    	; 0x7f4 <main+0x72e>
 a16:	80 91 48 01 	lds	r24, 0x0148
 a1a:	e3 ce       	rjmp	.-570    	; 0x7e2 <main+0x71c>
 a1c:	80 91 48 01 	lds	r24, 0x0148
 a20:	d7 ce       	rjmp	.-594    	; 0x7d0 <main+0x70a>
 a22:	80 91 48 01 	lds	r24, 0x0148
 a26:	cb ce       	rjmp	.-618    	; 0x7be <main+0x6f8>
						{
							duty_cycle =
								eeprom_read_byte((uint8_t*)1)*256
								+ eeprom_read_byte((uint8_t*)2);
							PWM_SET1;
							PWM_SET2;
 a28:	80 91 48 01 	lds	r24, 0x0148
 a2c:	bf ce       	rjmp	.-642    	; 0x7ac <main+0x6e6>
 a2e:	80 91 48 01 	lds	r24, 0x0148
 a32:	80 93 08 01 	sts	0x0108, r24
 a36:	80 91 47 01 	lds	r24, 0x0147
 a3a:	82 30       	cpi	r24, 0x02	; 2
 a3c:	08 f0       	brcs	.+2      	; 0xa40 <__stack+0x141>
 a3e:	ab ce       	rjmp	.-682    	; 0x796 <main+0x6d0>
 a40:	80 91 48 01 	lds	r24, 0x0148
 a44:	aa ce       	rjmp	.-684    	; 0x79a <main+0x6d4>
				/** DAQ step 8 */
				//** forward serial transfert **/
				if(rs232_tx_flag && ++rs232_fwd_ct==3)
				{
					rs232_fwd_ct=0;
					RS232_FWD;
 a46:	10 92 07 01 	sts	0x0107, r1
 a4a:	10 92 01 01 	sts	0x0101, r1
 a4e:	10 92 49 01 	sts	0x0149, r1
				
				/** DAQ step 8 */
				//** forward serial transfert **/
				if(rs232_tx_flag && ++rs232_fwd_ct==3)
				{
					rs232_fwd_ct=0;
 a52:	c1 2c       	mov	r12, r1
 a54:	9d cc       	rjmp	.-1734   	; 0x390 <main+0x2ca>
							PWM_SET1;
							PWM_SET2;
							PWM_SET3;
							PWM_SET4;
						}
						else pwm_stop();
 a56:	4a 8b       	std	Y+18, r20	; 0x12
 a58:	7b 8b       	std	Y+19, r23	; 0x13
 a5a:	0e 94 15 06 	call	0xc2a	; 0xc2a <pwm_stop>
 a5e:	4a 89       	ldd	r20, Y+18	; 0x12
 a60:	7b 89       	ldd	r23, Y+19	; 0x13
 a62:	18 cc       	rjmp	.-2000   	; 0x294 <main+0x1ce>

00000a64 <rs232_init>:


void rs232_init(enum BAUD baud, enum DATA data, enum PARITE parite, enum STOP stop)
{
	/* baud rate */
	UCSR0A &= ~(1 << U2X0);
 a64:	90 91 c0 00 	lds	r25, 0x00C0
 a68:	9d 7f       	andi	r25, 0xFD	; 253
 a6a:	90 93 c0 00 	sts	0x00C0, r25
	UBRR0H = baud >> 8;
 a6e:	10 92 c5 00 	sts	0x00C5, r1
	UBRR0L = baud;
 a72:	80 93 c4 00 	sts	0x00C4, r24

	/* number of data bits */
	UCSR0B &= ~(1 << UCSZ02);	// On utilisera pas 9 bits de données
 a76:	80 91 c1 00 	lds	r24, 0x00C1
 a7a:	8b 7f       	andi	r24, 0xFB	; 251
 a7c:	80 93 c1 00 	sts	0x00C1, r24
	if(data & 2)	UCSR0C |= (1 << UCSZ01);
 a80:	80 91 c2 00 	lds	r24, 0x00C2
 a84:	61 ff       	sbrs	r22, 1
 a86:	33 c0       	rjmp	.+102    	; 0xaee <rs232_init+0x8a>
 a88:	84 60       	ori	r24, 0x04	; 4
 a8a:	80 93 c2 00 	sts	0x00C2, r24
	else			UCSR0C &= ~(1 << UCSZ01);
	if(data & 1)	UCSR0C |= (1 << UCSZ00);
 a8e:	80 91 c2 00 	lds	r24, 0x00C2
 a92:	60 ff       	sbrs	r22, 0
 a94:	33 c0       	rjmp	.+102    	; 0xafc <rs232_init+0x98>
 a96:	82 60       	ori	r24, 0x02	; 2
 a98:	80 93 c2 00 	sts	0x00C2, r24
	else			UCSR0C &= ~(1 << UCSZ00);

	/* Parité */
	if(parite & 2)	UCSR0C |= (1 << UPM01);
 a9c:	80 91 c2 00 	lds	r24, 0x00C2
 aa0:	41 ff       	sbrs	r20, 1
 aa2:	33 c0       	rjmp	.+102    	; 0xb0a <rs232_init+0xa6>
 aa4:	80 62       	ori	r24, 0x20	; 32
 aa6:	80 93 c2 00 	sts	0x00C2, r24
	else			UCSR0C &= ~(1 << UPM01);
	if(parite & 1)	UCSR0C |= (1 << UPM00);
 aaa:	80 91 c2 00 	lds	r24, 0x00C2
 aae:	40 ff       	sbrs	r20, 0
 ab0:	33 c0       	rjmp	.+102    	; 0xb18 <rs232_init+0xb4>
 ab2:	80 61       	ori	r24, 0x10	; 16
 ab4:	80 93 c2 00 	sts	0x00C2, r24
	else			UCSR0C &= ~(1 << UPM00);

	/* Stop bits */
	if(stop)	UCSR0C |= (1 << USBS0);
 ab8:	80 91 c2 00 	lds	r24, 0x00C2
 abc:	21 11       	cpse	r18, r1
 abe:	33 c0       	rjmp	.+102    	; 0xb26 <rs232_init+0xc2>
	else		UCSR0C &= ~(1 << USBS0);
 ac0:	87 7f       	andi	r24, 0xF7	; 247
 ac2:	80 93 c2 00 	sts	0x00C2, r24

	UCSR0B |= (1 << TXEN0);	// Enable transmitter
 ac6:	80 91 c1 00 	lds	r24, 0x00C1
 aca:	88 60       	ori	r24, 0x08	; 8
 acc:	80 93 c1 00 	sts	0x00C1, r24
	UCSR0B |= (1 << RXEN0);	// Enable receiver
 ad0:	80 91 c1 00 	lds	r24, 0x00C1
 ad4:	80 61       	ori	r24, 0x10	; 16
 ad6:	80 93 c1 00 	sts	0x00C1, r24

	/* Interrupts */
	UCSR0B |= (1 << TXCIE0) | (1 << RXCIE0);
 ada:	80 91 c1 00 	lds	r24, 0x00C1
 ade:	80 6c       	ori	r24, 0xC0	; 192
 ae0:	80 93 c1 00 	sts	0x00C1, r24
	// sei();			// set enable interrupt
	data = UDR0;	// dummy read
 ae4:	80 91 c6 00 	lds	r24, 0x00C6
	
	rs232_tx_flag = 0; // ready to transmit
 ae8:	10 92 49 01 	sts	0x0149, r1
 aec:	08 95       	ret
	UBRR0L = baud;

	/* number of data bits */
	UCSR0B &= ~(1 << UCSZ02);	// On utilisera pas 9 bits de données
	if(data & 2)	UCSR0C |= (1 << UCSZ01);
	else			UCSR0C &= ~(1 << UCSZ01);
 aee:	8b 7f       	andi	r24, 0xFB	; 251
 af0:	80 93 c2 00 	sts	0x00C2, r24
	if(data & 1)	UCSR0C |= (1 << UCSZ00);
 af4:	80 91 c2 00 	lds	r24, 0x00C2
 af8:	60 fd       	sbrc	r22, 0
 afa:	cd cf       	rjmp	.-102    	; 0xa96 <rs232_init+0x32>
	else			UCSR0C &= ~(1 << UCSZ00);
 afc:	8d 7f       	andi	r24, 0xFD	; 253
 afe:	80 93 c2 00 	sts	0x00C2, r24

	/* Parité */
	if(parite & 2)	UCSR0C |= (1 << UPM01);
 b02:	80 91 c2 00 	lds	r24, 0x00C2
 b06:	41 fd       	sbrc	r20, 1
 b08:	cd cf       	rjmp	.-102    	; 0xaa4 <rs232_init+0x40>
	else			UCSR0C &= ~(1 << UPM01);
 b0a:	8f 7d       	andi	r24, 0xDF	; 223
 b0c:	80 93 c2 00 	sts	0x00C2, r24
	if(parite & 1)	UCSR0C |= (1 << UPM00);
 b10:	80 91 c2 00 	lds	r24, 0x00C2
 b14:	40 fd       	sbrc	r20, 0
 b16:	cd cf       	rjmp	.-102    	; 0xab2 <rs232_init+0x4e>
	else			UCSR0C &= ~(1 << UPM00);
 b18:	8f 7e       	andi	r24, 0xEF	; 239
 b1a:	80 93 c2 00 	sts	0x00C2, r24

	/* Stop bits */
	if(stop)	UCSR0C |= (1 << USBS0);
 b1e:	80 91 c2 00 	lds	r24, 0x00C2
 b22:	22 23       	and	r18, r18
 b24:	69 f2       	breq	.-102    	; 0xac0 <rs232_init+0x5c>
 b26:	88 60       	ori	r24, 0x08	; 8
 b28:	80 93 c2 00 	sts	0x00C2, r24
 b2c:	cc cf       	rjmp	.-104    	; 0xac6 <rs232_init+0x62>

00000b2e <__vector_18>:
	
	rs232_tx_flag = 0; // ready to transmit
}

ISR(USART_RX_vect)
{
 b2e:	1f 92       	push	r1
 b30:	0f 92       	push	r0
 b32:	0f b6       	in	r0, 0x3f	; 63
 b34:	0f 92       	push	r0
 b36:	11 24       	eor	r1, r1
 b38:	8f 93       	push	r24
 b3a:	ef 93       	push	r30
 b3c:	ff 93       	push	r31
	rs232_rx_flag = 1;
 b3e:	81 e0       	ldi	r24, 0x01	; 1
 b40:	80 93 00 01 	sts	0x0100, r24
	rs232_rx_idx &= 3;
 b44:	80 91 42 01 	lds	r24, 0x0142
 b48:	83 70       	andi	r24, 0x03	; 3
 b4a:	80 93 42 01 	sts	0x0142, r24
	rs232_rx_buffer[rs232_rx_idx++] = UDR0;
 b4e:	e0 91 42 01 	lds	r30, 0x0142
 b52:	81 e0       	ldi	r24, 0x01	; 1
 b54:	8e 0f       	add	r24, r30
 b56:	80 93 42 01 	sts	0x0142, r24
 b5a:	f0 e0       	ldi	r31, 0x00	; 0
 b5c:	80 91 c6 00 	lds	r24, 0x00C6
 b60:	ee 5f       	subi	r30, 0xFE	; 254
 b62:	fe 4f       	sbci	r31, 0xFE	; 254
 b64:	80 83       	st	Z, r24
}
 b66:	ff 91       	pop	r31
 b68:	ef 91       	pop	r30
 b6a:	8f 91       	pop	r24
 b6c:	0f 90       	pop	r0
 b6e:	0f be       	out	0x3f, r0	; 63
 b70:	0f 90       	pop	r0
 b72:	1f 90       	pop	r1
 b74:	18 95       	reti

00000b76 <__vector_20>:

ISR(USART_TX_vect)
{
 b76:	1f 92       	push	r1
 b78:	0f 92       	push	r0
 b7a:	0f b6       	in	r0, 0x3f	; 63
 b7c:	0f 92       	push	r0
 b7e:	11 24       	eor	r1, r1
 b80:	8f 93       	push	r24
 b82:	9f 93       	push	r25
 b84:	ef 93       	push	r30
 b86:	ff 93       	push	r31
	if(rs232_tx_idx < rs232_tx_len) UDR0 = rs232_tx_buffer[rs232_tx_idx++];
 b88:	90 91 01 01 	lds	r25, 0x0101
 b8c:	80 91 07 01 	lds	r24, 0x0107
 b90:	98 17       	cp	r25, r24
 b92:	78 f0       	brcs	.+30     	; 0xbb2 <__vector_20+0x3c>
	else
	{
		rs232_tx_len = 0;
 b94:	10 92 07 01 	sts	0x0107, r1
		rs232_tx_idx = 0;
 b98:	10 92 01 01 	sts	0x0101, r1
		rs232_tx_flag = 0;
 b9c:	10 92 49 01 	sts	0x0149, r1
	}
}
 ba0:	ff 91       	pop	r31
 ba2:	ef 91       	pop	r30
 ba4:	9f 91       	pop	r25
 ba6:	8f 91       	pop	r24
 ba8:	0f 90       	pop	r0
 baa:	0f be       	out	0x3f, r0	; 63
 bac:	0f 90       	pop	r0
 bae:	1f 90       	pop	r1
 bb0:	18 95       	reti
	rs232_rx_buffer[rs232_rx_idx++] = UDR0;
}

ISR(USART_TX_vect)
{
	if(rs232_tx_idx < rs232_tx_len) UDR0 = rs232_tx_buffer[rs232_tx_idx++];
 bb2:	e0 91 01 01 	lds	r30, 0x0101
 bb6:	81 e0       	ldi	r24, 0x01	; 1
 bb8:	8e 0f       	add	r24, r30
 bba:	80 93 01 01 	sts	0x0101, r24
 bbe:	f0 e0       	ldi	r31, 0x00	; 0
 bc0:	e0 5f       	subi	r30, 0xF0	; 240
 bc2:	fe 4f       	sbci	r31, 0xFE	; 254
 bc4:	80 81       	ld	r24, Z
 bc6:	80 93 c6 00 	sts	0x00C6, r24
 bca:	ea cf       	rjmp	.-44     	; 0xba0 <__vector_20+0x2a>

00000bcc <spi_init>:
void spi_init(void)
{
	uint8_t i;
	
	/* SPI pinout : SS=>PB2 ; MOSI=>PB3 ; MISO<=PB4 ; SCK=>PB5 */
	DDRB |= (1<<2)|(1<<3)|(1<<5); // outputs
 bcc:	84 b1       	in	r24, 0x04	; 4
 bce:	8c 62       	ori	r24, 0x2C	; 44
 bd0:	84 b9       	out	0x04, r24	; 4
	DDRB &= ~(1<<4); // input
 bd2:	24 98       	cbi	0x04, 4	; 4
	
	/* Interrupt Enable, SPI Enable, Master, Mode 1, clock rate fck/4 */
	SPCR = /*(1<<SPIE)|*/(1<<SPE)|(1<<MSTR)|(1<<CPHA);
 bd4:	84 e5       	ldi	r24, 0x54	; 84
 bd6:	8c bd       	out	0x2c, r24	; 44
	SPSR |= (1<<SPI2X); // double speed : fck/2
 bd8:	8d b5       	in	r24, 0x2d	; 45
 bda:	81 60       	ori	r24, 0x01	; 1
 bdc:	8d bd       	out	0x2d, r24	; 45

	for(i=0; i<3; i++) spi_buffer[i] = 0; // clear spi_buffer array
 bde:	e3 e4       	ldi	r30, 0x43	; 67
 be0:	f1 e0       	ldi	r31, 0x01	; 1
 be2:	10 82       	st	Z, r1
 be4:	11 82       	std	Z+1, r1	; 0x01
 be6:	12 82       	std	Z+2, r1	; 0x02
	
	PORTB |= (1<<2); // !SS high
 be8:	2a 9a       	sbi	0x05, 2	; 5
 bea:	08 95       	ret

00000bec <pwm_init>:
void pwm_init(void)
{
	// Utilisation de 2 compteurs synchronisés avec une valeur max de 80
	// pour atteindre la frequence de 100KHz
	
	GTCCR = (1<<TSM) | (1<<PSRASY) | (1<<PSRSYNC);	// halt all timers
 bec:	83 e8       	ldi	r24, 0x83	; 131
 bee:	83 bd       	out	0x23, r24	; 35
	// TC2 setup :
	// WGM (Waveform Generation Mode) = 101 : PWM, Phase Correct with OCRA as TOP
	// COM2A = 00 : OC2A disconnected
	// COM2B = 10 : not-inverted
	// CS = 001 : ClkIO/1 (No prescaling)
	TCCR2A = (1<<COM2B1) | (1<<WGM20);
 bf0:	81 e2       	ldi	r24, 0x21	; 33
 bf2:	80 93 b0 00 	sts	0x00B0, r24
	TCCR2B = (1<<WGM22) | (1<<CS20);
 bf6:	99 e0       	ldi	r25, 0x09	; 9
 bf8:	90 93 b1 00 	sts	0x00B1, r25
	OCR2A = PWM_CT_TOP; // set top limit
 bfc:	80 e5       	ldi	r24, 0x50	; 80
 bfe:	80 93 b3 00 	sts	0x00B3, r24
	OCR2B = 0; // output low
 c02:	10 92 b4 00 	sts	0x00B4, r1
	TCNT2 = 0; // reset
 c06:	10 92 b2 00 	sts	0x00B2, r1
	// TC0 setup :
	// WGM (Waveform Generation Mode) = 101 : PWM, Phase Correct with OCRA as TOP
	// COM0A = 00 : OC0A disconnected
	// COM0B = 11 : inverted
	// CS = 001 : ClkIO/1 (No prescaling)
	TCCR0A = (1<<COM0B1) | (1<<COM2B0) | (1<<WGM00);
 c0a:	21 e3       	ldi	r18, 0x31	; 49
 c0c:	24 bd       	out	0x24, r18	; 36
	TCCR0B = (1<<WGM02) | (1<<CS00);
 c0e:	95 bd       	out	0x25, r25	; 37
	OCR0A = PWM_CT_TOP; // set top limit
 c10:	87 bd       	out	0x27, r24	; 39
	OCR0B = PWM_CT_TOP; // output low
 c12:	88 bd       	out	0x28, r24	; 40
	TCNT0 = 0; // reset
 c14:	16 bc       	out	0x26, r1	; 38

	DDRD |= (1<<3) | (1<<5); // set outputs
 c16:	8a b1       	in	r24, 0x0a	; 10
 c18:	88 62       	ori	r24, 0x28	; 40
 c1a:	8a b9       	out	0x0a, r24	; 10
	
	TIMSK0 |= (1<<OCIE0A); // enable interrupt on compare match
 c1c:	ee e6       	ldi	r30, 0x6E	; 110
 c1e:	f0 e0       	ldi	r31, 0x00	; 0
 c20:	80 81       	ld	r24, Z
 c22:	82 60       	ori	r24, 0x02	; 2
 c24:	80 83       	st	Z, r24
	
	GTCCR = 0; // release all timers
 c26:	13 bc       	out	0x23, r1	; 35
 c28:	08 95       	ret

00000c2a <pwm_stop>:
}

void pwm_stop(void)
{
	pwm_run = 0;
 c2a:	10 92 06 01 	sts	0x0106, r1
	OCR2B = 0;
 c2e:	10 92 b4 00 	sts	0x00B4, r1
	OCR0B = PWM_CT_TOP;
 c32:	80 e5       	ldi	r24, 0x50	; 80
 c34:	88 bd       	out	0x28, r24	; 40
 c36:	08 95       	ret

00000c38 <__vector_14>:
}

ISR(TIMER0_COMPA_vect)
{
 c38:	1f 92       	push	r1
 c3a:	0f 92       	push	r0
 c3c:	0f b6       	in	r0, 0x3f	; 63
 c3e:	0f 92       	push	r0
 c40:	11 24       	eor	r1, r1
 c42:	8f 93       	push	r24
 c44:	ef 93       	push	r30
 c46:	ff 93       	push	r31
	//PORTC |= 4;
	
	if(pwm_run)
 c48:	80 91 06 01 	lds	r24, 0x0106
 c4c:	88 23       	and	r24, r24
 c4e:	a1 f0       	breq	.+40     	; 0xc78 <__vector_14+0x40>
	{
		OCR0B = pwm_int[pwm_idx++];
 c50:	e0 91 4b 01 	lds	r30, 0x014B
 c54:	81 e0       	ldi	r24, 0x01	; 1
 c56:	8e 0f       	add	r24, r30
 c58:	80 93 4b 01 	sts	0x014B, r24
 c5c:	f0 e0       	ldi	r31, 0x00	; 0
 c5e:	e8 5f       	subi	r30, 0xF8	; 248
 c60:	fe 4f       	sbci	r31, 0xFE	; 254
 c62:	80 81       	ld	r24, Z
 c64:	88 bd       	out	0x28, r24	; 40
		OCR2B = OCR0B - PWM_DEAD_TIME;
 c66:	88 b5       	in	r24, 0x28	; 40
 c68:	84 50       	subi	r24, 0x04	; 4
 c6a:	80 93 b4 00 	sts	0x00B4, r24
		pwm_idx &= 7; // pwm index reset (8-1)
 c6e:	80 91 4b 01 	lds	r24, 0x014B
 c72:	87 70       	andi	r24, 0x07	; 7
 c74:	80 93 4b 01 	sts	0x014B, r24
	}
	
	timer_10us = 1;
 c78:	81 e0       	ldi	r24, 0x01	; 1
 c7a:	80 93 46 01 	sts	0x0146, r24

	//PORTC &= ~4;
	// execution time: 2µs
}
 c7e:	ff 91       	pop	r31
 c80:	ef 91       	pop	r30
 c82:	8f 91       	pop	r24
 c84:	0f 90       	pop	r0
 c86:	0f be       	out	0x3f, r0	; 63
 c88:	0f 90       	pop	r0
 c8a:	1f 90       	pop	r1
 c8c:	18 95       	reti

00000c8e <__tablejump2__>:
 c8e:	ee 0f       	add	r30, r30
 c90:	ff 1f       	adc	r31, r31
 c92:	05 90       	lpm	r0, Z+
 c94:	f4 91       	lpm	r31, Z
 c96:	e0 2d       	mov	r30, r0
 c98:	09 94       	ijmp

00000c9a <eeprom_read_byte>:
 c9a:	f9 99       	sbic	0x1f, 1	; 31
 c9c:	fe cf       	rjmp	.-4      	; 0xc9a <eeprom_read_byte>
 c9e:	92 bd       	out	0x22, r25	; 34
 ca0:	81 bd       	out	0x21, r24	; 33
 ca2:	f8 9a       	sbi	0x1f, 0	; 31
 ca4:	99 27       	eor	r25, r25
 ca6:	80 b5       	in	r24, 0x20	; 32
 ca8:	08 95       	ret

00000caa <eeprom_write_byte>:
 caa:	26 2f       	mov	r18, r22

00000cac <eeprom_write_r18>:
 cac:	f9 99       	sbic	0x1f, 1	; 31
 cae:	fe cf       	rjmp	.-4      	; 0xcac <eeprom_write_r18>
 cb0:	1f ba       	out	0x1f, r1	; 31
 cb2:	92 bd       	out	0x22, r25	; 34
 cb4:	81 bd       	out	0x21, r24	; 33
 cb6:	20 bd       	out	0x20, r18	; 32
 cb8:	0f b6       	in	r0, 0x3f	; 63
 cba:	f8 94       	cli
 cbc:	fa 9a       	sbi	0x1f, 2	; 31
 cbe:	f9 9a       	sbi	0x1f, 1	; 31
 cc0:	0f be       	out	0x3f, r0	; 63
 cc2:	01 96       	adiw	r24, 0x01	; 1
 cc4:	08 95       	ret

00000cc6 <_exit>:
 cc6:	f8 94       	cli

00000cc8 <__stop_program>:
 cc8:	ff cf       	rjmp	.-2      	; 0xcc8 <__stop_program>
